{
  "contractName": "Arbitrator",
  "abi": [
    {
      "anonymous": false,
      "inputs": [
        {
          "indexed": true,
          "internalType": "uint256",
          "name": "_disputeID",
          "type": "uint256"
        },
        {
          "indexed": true,
          "internalType": "contract IArbitrable",
          "name": "_arbitrable",
          "type": "address"
        }
      ],
      "name": "AppealDecision",
      "type": "event"
    },
    {
      "anonymous": false,
      "inputs": [
        {
          "indexed": true,
          "internalType": "uint256",
          "name": "_disputeID",
          "type": "uint256"
        },
        {
          "indexed": true,
          "internalType": "contract IArbitrable",
          "name": "_arbitrable",
          "type": "address"
        }
      ],
      "name": "AppealPossible",
      "type": "event"
    },
    {
      "anonymous": false,
      "inputs": [
        {
          "indexed": true,
          "internalType": "uint256",
          "name": "_disputeID",
          "type": "uint256"
        },
        {
          "indexed": true,
          "internalType": "contract IArbitrable",
          "name": "_arbitrable",
          "type": "address"
        }
      ],
      "name": "DisputeCreation",
      "type": "event"
    },
    {
      "inputs": [
        {
          "internalType": "uint256",
          "name": "",
          "type": "uint256"
        }
      ],
      "name": "disputes",
      "outputs": [
        {
          "internalType": "contract IArbitrable",
          "name": "arbitrated",
          "type": "address"
        },
        {
          "internalType": "uint256",
          "name": "choices",
          "type": "uint256"
        },
        {
          "internalType": "uint256",
          "name": "ruling",
          "type": "uint256"
        },
        {
          "internalType": "enum IArbitrator.DisputeStatus",
          "name": "status",
          "type": "uint8"
        }
      ],
      "stateMutability": "view",
      "type": "function",
      "constant": true
    },
    {
      "inputs": [],
      "name": "owner",
      "outputs": [
        {
          "internalType": "address",
          "name": "",
          "type": "address"
        }
      ],
      "stateMutability": "view",
      "type": "function",
      "constant": true
    },
    {
      "inputs": [
        {
          "internalType": "bytes",
          "name": "_extraData",
          "type": "bytes"
        }
      ],
      "name": "arbitrationCost",
      "outputs": [
        {
          "internalType": "uint256",
          "name": "",
          "type": "uint256"
        }
      ],
      "stateMutability": "pure",
      "type": "function",
      "constant": true
    },
    {
      "inputs": [
        {
          "internalType": "uint256",
          "name": "_disputeID",
          "type": "uint256"
        },
        {
          "internalType": "bytes",
          "name": "_extraData",
          "type": "bytes"
        }
      ],
      "name": "appealCost",
      "outputs": [
        {
          "internalType": "uint256",
          "name": "",
          "type": "uint256"
        }
      ],
      "stateMutability": "pure",
      "type": "function",
      "constant": true
    },
    {
      "inputs": [
        {
          "internalType": "uint256",
          "name": "_choices",
          "type": "uint256"
        },
        {
          "internalType": "bytes",
          "name": "_extraData",
          "type": "bytes"
        }
      ],
      "name": "createDispute",
      "outputs": [
        {
          "internalType": "uint256",
          "name": "disputeID",
          "type": "uint256"
        }
      ],
      "stateMutability": "payable",
      "type": "function",
      "payable": true
    },
    {
      "inputs": [
        {
          "internalType": "uint256",
          "name": "_disputeID",
          "type": "uint256"
        }
      ],
      "name": "disputeStatus",
      "outputs": [
        {
          "internalType": "enum IArbitrator.DisputeStatus",
          "name": "status",
          "type": "uint8"
        }
      ],
      "stateMutability": "view",
      "type": "function",
      "constant": true
    },
    {
      "inputs": [
        {
          "internalType": "uint256",
          "name": "_disputeID",
          "type": "uint256"
        }
      ],
      "name": "currentRuling",
      "outputs": [
        {
          "internalType": "uint256",
          "name": "ruling",
          "type": "uint256"
        }
      ],
      "stateMutability": "view",
      "type": "function",
      "constant": true
    },
    {
      "inputs": [
        {
          "internalType": "uint256",
          "name": "_disputeID",
          "type": "uint256"
        },
        {
          "internalType": "uint256",
          "name": "_ruling",
          "type": "uint256"
        }
      ],
      "name": "rule",
      "outputs": [],
      "stateMutability": "nonpayable",
      "type": "function"
    },
    {
      "inputs": [
        {
          "internalType": "uint256",
          "name": "_disputeID",
          "type": "uint256"
        },
        {
          "internalType": "bytes",
          "name": "_extraData",
          "type": "bytes"
        }
      ],
      "name": "appeal",
      "outputs": [],
      "stateMutability": "payable",
      "type": "function",
      "payable": true
    },
    {
      "inputs": [
        {
          "internalType": "uint256",
          "name": "_disputeID",
          "type": "uint256"
        }
      ],
      "name": "appealPeriod",
      "outputs": [
        {
          "internalType": "uint256",
          "name": "start",
          "type": "uint256"
        },
        {
          "internalType": "uint256",
          "name": "end",
          "type": "uint256"
        }
      ],
      "stateMutability": "pure",
      "type": "function",
      "constant": true
    }
  ],
  "bytecode": "0x6080604052336000806101000a81548173ffffffffffffffffffffffffffffffffffffffff021916908373ffffffffffffffffffffffffffffffffffffffff16021790555034801561005057600080fd5b50610f8d806100606000396000f3fe6080604052600436106100915760003560e01c80638da5cb5b116100595780638da5cb5b14610195578063afe15cfb146101c0578063c13517e1146101fe578063f23f16e61461022e578063f7434ea91461026b57610091565b806310f169e8146100965780631c3db16d146100d3578063311a6c561461011057806349912f8814610139578063564a565d14610155575b600080fd5b3480156100a257600080fd5b506100bd60048036038101906100b891906109ea565b6102a8565b6040516100ca9190610ba8565b60405180910390f35b3480156100df57600080fd5b506100fa60048036038101906100f591906109ea565b61030a565b6040516101079190610c23565b60405180910390f35b34801561011c57600080fd5b5061013760048036038101906101329190610a67565b61035f565b005b610153600480360381019061014e9190610a13565b610606565b005b34801561016157600080fd5b5061017c600480360381019061017791906109ea565b610656565b60405161018c9493929190610b63565b60405180910390f35b3480156101a157600080fd5b506101aa6106c3565b6040516101b79190610b48565b60405180910390f35b3480156101cc57600080fd5b506101e760048036038101906101e291906109ea565b6106e7565b6040516101f5929190610c3e565b60405180910390f35b61021860048036038101906102139190610a13565b6106f6565b6040516102259190610c23565b60405180910390f35b34801561023a57600080fd5b5061025560048036038101906102509190610a13565b6108f0565b6040516102629190610c23565b60405180910390f35b34801561027757600080fd5b50610292600480360381019061028d91906109a9565b61091b565b60405161029f9190610c23565b60405180910390f35b6000600182815481106102e4577f4e487b7100000000000000000000000000000000000000000000000000000000600052603260045260246000fd5b906000526020600020906004020160030160009054906101000a900460ff169050919050565b600060018281548110610346577f4e487b7100000000000000000000000000000000000000000000000000000000600052603260045260246000fd5b9060005260206000209060040201600201549050919050565b60006001838154811061039b577f4e487b7100000000000000000000000000000000000000000000000000000000600052603260045260246000fd5b9060005260206000209060040201905080600101548211156103f2576040517f08c379a00000000000000000000000000000000000000000000000000000000081526004016103e990610c03565b60405180910390fd5b6000600281111561042c577f4e487b7100000000000000000000000000000000000000000000000000000000600052602160045260246000fd5b8160030160009054906101000a900460ff166002811115610476577f4e487b7100000000000000000000000000000000000000000000000000000000600052602160045260246000fd5b146104b6576040517f08c379a00000000000000000000000000000000000000000000000000000000081526004016104ad90610bc3565b60405180910390fd5b81816002018190555060028160030160006101000a81548160ff0219169083600281111561050d577f4e487b7100000000000000000000000000000000000000000000000000000000600052602160045260246000fd5b02179055503373ffffffffffffffffffffffffffffffffffffffff166108fc6105446040518060200160405280600081525061091b565b9081150290604051600060405180830381858888f1935050505015801561056f573d6000803e3d6000fd5b508060000160009054906101000a900473ffffffffffffffffffffffffffffffffffffffff1673ffffffffffffffffffffffffffffffffffffffff1663311a6c5684846040518363ffffffff1660e01b81526004016105cf929190610c3e565b600060405180830381600087803b1580156105e957600080fd5b505af11580156105fd573d6000803e3d6000fd5b50505050505050565b61061082826108f0565b341015610652576040517f08c379a000000000000000000000000000000000000000000000000000000000815260040161064990610be3565b60405180910390fd5b5050565b6001818154811061066657600080fd5b90600052602060002090600402016000915090508060000160009054906101000a900473ffffffffffffffffffffffffffffffffffffffff16908060010154908060020154908060030160009054906101000a900460ff16905084565b60008054906101000a900473ffffffffffffffffffffffffffffffffffffffff1681565b60008060008091509150915091565b60006107018261091b565b341015610743576040517f08c379a000000000000000000000000000000000000000000000000000000000815260040161073a90610be3565b60405180910390fd5b600160405180608001604052803373ffffffffffffffffffffffffffffffffffffffff1681526020018581526020016101a48152602001600060028111156107b4577f4e487b7100000000000000000000000000000000000000000000000000000000600052602160045260246000fd5b815250908060018154018082558091505060019003906000526020600020906004020160009091909190915060008201518160000160006101000a81548173ffffffffffffffffffffffffffffffffffffffff021916908373ffffffffffffffffffffffffffffffffffffffff160217905550602082015181600101556040820151816002015560608201518160030160006101000a81548160ff0219169083600281111561088c577f4e487b7100000000000000000000000000000000000000000000000000000000600052602160045260246000fd5b02179055505050600180805490506108a49190610cce565b90503373ffffffffffffffffffffffffffffffffffffffff16817f141dfc18aa6a56fc816f44f0e9e2f1ebc92b15ab167770e17db5b084c10ed99560405160405180910390a392915050565b60007f0400000000000000000000000000000000000000000000000000000000000000905092915050565b600066038d7ea4c680009050919050565b600061093f61093a84610c8c565b610c67565b90508281526020810184848401111561095757600080fd5b610962848285610d87565b509392505050565b600082601f83011261097b57600080fd5b813561098b84826020860161092c565b91505092915050565b6000813590506109a381610f40565b92915050565b6000602082840312156109bb57600080fd5b600082013567ffffffffffffffff8111156109d557600080fd5b6109e18482850161096a565b91505092915050565b6000602082840312156109fc57600080fd5b6000610a0a84828501610994565b91505092915050565b60008060408385031215610a2657600080fd5b6000610a3485828601610994565b925050602083013567ffffffffffffffff811115610a5157600080fd5b610a5d8582860161096a565b9150509250929050565b60008060408385031215610a7a57600080fd5b6000610a8885828601610994565b9250506020610a9985828601610994565b9150509250929050565b610aac81610d02565b82525050565b610abb81610d51565b82525050565b610aca81610d75565b82525050565b6000610add602483610cbd565b9150610ae882610e65565b604082019050919050565b6000610b00602a83610cbd565b9150610b0b82610eb4565b604082019050919050565b6000610b23601583610cbd565b9150610b2e82610f03565b602082019050919050565b610b4281610d47565b82525050565b6000602082019050610b5d6000830184610aa3565b92915050565b6000608082019050610b786000830187610ab2565b610b856020830186610b39565b610b926040830185610b39565b610b9f6060830184610ac1565b95945050505050565b6000602082019050610bbd6000830184610ac1565b92915050565b60006020820190508181036000830152610bdc81610ad0565b9050919050565b60006020820190508181036000830152610bfc81610af3565b9050919050565b60006020820190508181036000830152610c1c81610b16565b9050919050565b6000602082019050610c386000830184610b39565b92915050565b6000604082019050610c536000830185610b39565b610c606020830184610b39565b9392505050565b6000610c71610c82565b9050610c7d8282610d96565b919050565b6000604051905090565b600067ffffffffffffffff821115610ca757610ca6610e25565b5b610cb082610e54565b9050602081019050919050565b600082825260208201905092915050565b6000610cd982610d47565b9150610ce483610d47565b925082821015610cf757610cf6610dc7565b5b828203905092915050565b6000610d0d82610d27565b9050919050565b6000819050610d2282610f2c565b919050565b600073ffffffffffffffffffffffffffffffffffffffff82169050919050565b6000819050919050565b6000610d5c82610d63565b9050919050565b6000610d6e82610d27565b9050919050565b6000610d8082610d14565b9050919050565b82818337600083830152505050565b610d9f82610e54565b810181811067ffffffffffffffff82111715610dbe57610dbd610e25565b5b80604052505050565b7f4e487b7100000000000000000000000000000000000000000000000000000000600052601160045260246000fd5b7f4e487b7100000000000000000000000000000000000000000000000000000000600052602160045260246000fd5b7f4e487b7100000000000000000000000000000000000000000000000000000000600052604160045260246000fd5b6000601f19601f8301169050919050565b7f44697370757465206973206e6f74206177616974696e6720617262697472617460008201527f696f6e2e00000000000000000000000000000000000000000000000000000000602082015250565b7f4e6f7420656e6f7567682045544820746f20636f76657220617262697472617460008201527f696f6e20636f7374732e00000000000000000000000000000000000000000000602082015250565b7f52756c696e67206f7574206f6620626f756e6473210000000000000000000000600082015250565b60038110610f3d57610f3c610df6565b5b50565b610f4981610d47565b8114610f5457600080fd5b5056fea264697066735822122084a57257ec4ae7ad4b2e070dde1ec594983276099a0b8c318d78b4491bb5d18c64736f6c63430008040033",
  "immutableReferences": {},
  "source": "/**\n * SPDX-License-Identifier: MIT\n */\npragma solidity >=0.7;\n\nimport \"./IArbitrator.sol\";\n\ncontract Arbitrator is IArbitrator {\n    address public owner = msg.sender;\n\n    struct Dispute {\n        IArbitrable arbitrated;\n        uint256 choices;\n        uint256 ruling;\n        DisputeStatus status;\n    }\n\n    Dispute[] public disputes;\n\n    function arbitrationCost(bytes memory _extraData)\n        public\n        pure\n        override\n        returns (uint256)\n    {\n        return 0.001 ether;\n    }\n\n    function appealCost(uint256 _disputeID, bytes memory _extraData)\n        public\n        pure\n        override\n        returns (uint256)\n    {\n        return 2**250; // An unaffordable amount which practically avoids appeals.\n    }\n\n    function createDispute(uint256 _choices, bytes memory _extraData)\n        public\n        payable\n        override\n        returns (uint256 disputeID)\n    {\n        require(\n            msg.value >= arbitrationCost(_extraData),\n            \"Not enough ETH to cover arbitration costs.\"\n        );\n\n        disputes.push(\n            Dispute({\n                arbitrated: IArbitrable(msg.sender),\n                choices: _choices,\n                ruling: uint256(420),\n                status: DisputeStatus.Waiting\n            })\n        );\n\n        disputeID = disputes.length - 1;\n        emit DisputeCreation(disputeID, IArbitrable(msg.sender));\n    }\n\n    function disputeStatus(uint256 _disputeID)\n        public\n        view\n        override\n        returns (DisputeStatus status)\n    {\n        status = disputes[_disputeID].status;\n    }\n\n    function currentRuling(uint256 _disputeID)\n        public\n        view\n        override\n        returns (uint256 ruling)\n    {\n        ruling = disputes[_disputeID].ruling;\n    }\n\n    function rule(uint256 _disputeID, uint256 _ruling) public {\n        // For test reason everyone can arbitrate\n\n        Dispute storage dispute = disputes[_disputeID];\n\n        require(_ruling <= dispute.choices, \"Ruling out of bounds!\");\n        require(\n            dispute.status == DisputeStatus.Waiting,\n            \"Dispute is not awaiting arbitration.\"\n        );\n\n        dispute.ruling = _ruling;\n        dispute.status = DisputeStatus.Solved;\n\n        payable(msg.sender).transfer(arbitrationCost(\"\"));\n        dispute.arbitrated.rule(_disputeID, _ruling);\n    }\n\n    function appeal(uint256 _disputeID, bytes memory _extraData)\n        public\n        payable\n        override\n    {\n        require(\n            msg.value >= appealCost(_disputeID, _extraData),\n            \"Not enough ETH to cover arbitration costs.\"\n        );\n    }\n\n    function appealPeriod(uint256 _disputeID)\n        public\n        pure\n        override\n        returns (uint256 start, uint256 end)\n    {\n        return (0, 0);\n    }\n}\n",
  "sourcePath": "/home/ajand/Desktop/projects/web3/kleros/contracts/Arbitrator.sol",
  "compiler": {
    "name": "solc",
    "version": "0.8.4+commit.c7e474f2.Emscripten.clang"
  },
  "schemaVersion": "3.4.1",
  "updatedAt": "2021-07-25T10:57:49.573Z",
  "networkType": "ethereum",
  "devdoc": {
    "kind": "dev",
    "methods": {
      "appeal(uint256,bytes)": {
        "details": "Appeal a ruling. Note that it has to be called before the arbitrator contract calls rule.",
        "params": {
          "_disputeID": "ID of the dispute to be appealed.",
          "_extraData": "Can be used to give extra info on the appeal."
        }
      },
      "appealCost(uint256,bytes)": {
        "details": "Compute the cost of appeal. It is recommended not to increase it often, as it can be higly time and gas consuming for the arbitrated contracts to cope with fee augmentation.",
        "params": {
          "_disputeID": "ID of the dispute to be appealed.",
          "_extraData": "Can be used to give additional info on the dispute to be created."
        },
        "returns": {
          "_0": "Amount to be paid."
        }
      },
      "appealPeriod(uint256)": {
        "details": "Compute the start and end of the dispute's current or next appeal period, if possible. If not known or appeal is impossible: should return (0, 0).",
        "params": {
          "_disputeID": "ID of the dispute."
        },
        "returns": {
          "end": "The end of the period.",
          "start": "The start of the period."
        }
      },
      "arbitrationCost(bytes)": {
        "details": "Compute the cost of arbitration. It is recommended not to increase it often, as it can be highly time and gas consuming for the arbitrated contracts to cope with fee augmentation.",
        "params": {
          "_extraData": "Can be used to give additional info on the dispute to be created."
        },
        "returns": {
          "_0": "Amount to be paid."
        }
      },
      "createDispute(uint256,bytes)": {
        "details": "Create a dispute. Must be called by the arbitrable contract. Must be paid at least arbitrationCost(_extraData).",
        "params": {
          "_choices": "Amount of choices the arbitrator can make in this dispute.",
          "_extraData": "Can be used to give additional info on the dispute to be created."
        },
        "returns": {
          "disputeID": "ID of the dispute created."
        }
      },
      "currentRuling(uint256)": {
        "details": "Return the current ruling of a dispute. This is useful for parties to know if they should appeal.",
        "params": {
          "_disputeID": "ID of the dispute."
        },
        "returns": {
          "ruling": "The ruling which has been given or the one which will be given if there is no appeal."
        }
      },
      "disputeStatus(uint256)": {
        "details": "Return the status of a dispute.",
        "params": {
          "_disputeID": "ID of the dispute to rule."
        },
        "returns": {
          "status": "The status of the dispute."
        }
      }
    },
    "version": 1
  },
  "userdoc": {
    "kind": "user",
    "methods": {},
    "version": 1
  }
}