{
  "contractName": "DeMatch",
  "abi": [
    {
      "inputs": [
        {
          "internalType": "address",
          "name": "_player1",
          "type": "address"
        },
        {
          "internalType": "address",
          "name": "_player2",
          "type": "address"
        },
        {
          "internalType": "contract IArbitrator",
          "name": "_arbitrator",
          "type": "address"
        },
        {
          "internalType": "uint256",
          "name": "_endAt",
          "type": "uint256"
        },
        {
          "internalType": "string",
          "name": "_meta",
          "type": "string"
        }
      ],
      "stateMutability": "nonpayable",
      "type": "constructor"
    },
    {
      "anonymous": false,
      "inputs": [
        {
          "indexed": true,
          "internalType": "contract IArbitrator",
          "name": "_arbitrator",
          "type": "address"
        },
        {
          "indexed": true,
          "internalType": "uint256",
          "name": "_disputeID",
          "type": "uint256"
        },
        {
          "indexed": false,
          "internalType": "uint256",
          "name": "_ruling",
          "type": "uint256"
        }
      ],
      "name": "Ruling",
      "type": "event"
    },
    {
      "inputs": [],
      "name": "announcedAt",
      "outputs": [
        {
          "internalType": "uint256",
          "name": "",
          "type": "uint256"
        }
      ],
      "stateMutability": "view",
      "type": "function"
    },
    {
      "inputs": [],
      "name": "announcer",
      "outputs": [
        {
          "internalType": "address",
          "name": "",
          "type": "address"
        }
      ],
      "stateMutability": "view",
      "type": "function"
    },
    {
      "inputs": [],
      "name": "arbitrationFeeDepositPeriod",
      "outputs": [
        {
          "internalType": "uint256",
          "name": "",
          "type": "uint256"
        }
      ],
      "stateMutability": "view",
      "type": "function"
    },
    {
      "inputs": [],
      "name": "arbitrator",
      "outputs": [
        {
          "internalType": "contract IArbitrator",
          "name": "",
          "type": "address"
        }
      ],
      "stateMutability": "view",
      "type": "function"
    },
    {
      "inputs": [],
      "name": "endAt",
      "outputs": [
        {
          "internalType": "uint256",
          "name": "",
          "type": "uint256"
        }
      ],
      "stateMutability": "view",
      "type": "function"
    },
    {
      "inputs": [],
      "name": "meta",
      "outputs": [
        {
          "internalType": "string",
          "name": "",
          "type": "string"
        }
      ],
      "stateMutability": "view",
      "type": "function"
    },
    {
      "inputs": [],
      "name": "player1",
      "outputs": [
        {
          "internalType": "address",
          "name": "",
          "type": "address"
        }
      ],
      "stateMutability": "view",
      "type": "function"
    },
    {
      "inputs": [],
      "name": "player2",
      "outputs": [
        {
          "internalType": "address",
          "name": "",
          "type": "address"
        }
      ],
      "stateMutability": "view",
      "type": "function"
    },
    {
      "inputs": [],
      "name": "protestAt",
      "outputs": [
        {
          "internalType": "uint256",
          "name": "",
          "type": "uint256"
        }
      ],
      "stateMutability": "view",
      "type": "function"
    },
    {
      "inputs": [],
      "name": "protestPeriod",
      "outputs": [
        {
          "internalType": "uint256",
          "name": "",
          "type": "uint256"
        }
      ],
      "stateMutability": "view",
      "type": "function"
    },
    {
      "inputs": [],
      "name": "status",
      "outputs": [
        {
          "internalType": "enum DeMatch.Status",
          "name": "",
          "type": "uint8"
        }
      ],
      "stateMutability": "view",
      "type": "function"
    },
    {
      "inputs": [],
      "name": "winner",
      "outputs": [
        {
          "internalType": "enum DeMatch.Player",
          "name": "",
          "type": "uint8"
        }
      ],
      "stateMutability": "view",
      "type": "function"
    },
    {
      "inputs": [
        {
          "internalType": "enum DeMatch.Player",
          "name": "_winner",
          "type": "uint8"
        }
      ],
      "name": "announceWinner",
      "outputs": [],
      "stateMutability": "nonpayable",
      "type": "function"
    },
    {
      "inputs": [],
      "name": "finalizeResult",
      "outputs": [],
      "stateMutability": "nonpayable",
      "type": "function"
    },
    {
      "inputs": [],
      "name": "acceptResult",
      "outputs": [],
      "stateMutability": "nonpayable",
      "type": "function"
    },
    {
      "inputs": [],
      "name": "protestResult",
      "outputs": [],
      "stateMutability": "payable",
      "type": "function"
    },
    {
      "inputs": [
        {
          "internalType": "enum DeMatch.Player",
          "name": "_winner",
          "type": "uint8"
        }
      ],
      "name": "revertResult",
      "outputs": [],
      "stateMutability": "nonpayable",
      "type": "function"
    },
    {
      "inputs": [],
      "name": "depositArbitrationFeeForAnnouncer",
      "outputs": [],
      "stateMutability": "payable",
      "type": "function"
    },
    {
      "inputs": [
        {
          "internalType": "uint256",
          "name": "_disputeID",
          "type": "uint256"
        },
        {
          "internalType": "uint256",
          "name": "_ruling",
          "type": "uint256"
        }
      ],
      "name": "rule",
      "outputs": [],
      "stateMutability": "nonpayable",
      "type": "function"
    },
    {
      "inputs": [],
      "name": "remainingTimeToProtest",
      "outputs": [
        {
          "internalType": "uint256",
          "name": "",
          "type": "uint256"
        }
      ],
      "stateMutability": "view",
      "type": "function"
    },
    {
      "inputs": [],
      "name": "remainingTimeToDepositArbitrationFee",
      "outputs": [
        {
          "internalType": "uint256",
          "name": "",
          "type": "uint256"
        }
      ],
      "stateMutability": "view",
      "type": "function"
    },
    {
      "inputs": [],
      "name": "finalizedWinner",
      "outputs": [
        {
          "internalType": "address",
          "name": "",
          "type": "address"
        }
      ],
      "stateMutability": "view",
      "type": "function"
    }
  ],
  "bytecode": "0x60806040523480156200001157600080fd5b506040516200311a3803806200311a8339818101604052810190620000379190620002dd565b846000806101000a81548173ffffffffffffffffffffffffffffffffffffffff021916908373ffffffffffffffffffffffffffffffffffffffff16021790555083600160006101000a81548173ffffffffffffffffffffffffffffffffffffffff021916908373ffffffffffffffffffffffffffffffffffffffff16021790555082600360006101000a81548173ffffffffffffffffffffffffffffffffffffffff021916908373ffffffffffffffffffffffffffffffffffffffff160217905550816004819055506000600560156101000a81548160ff021916908360048111156200014d577f4e487b7100000000000000000000000000000000000000000000000000000000600052602160045260246000fd5b021790555080600290805190602001906200016a92919062000176565b50505050505062000588565b82805462000184906200045f565b90600052602060002090601f016020900481019282620001a85760008555620001f4565b82601f10620001c357805160ff1916838001178555620001f4565b82800160010185558215620001f4579182015b82811115620001f3578251825591602001919060010190620001d6565b5b50905062000203919062000207565b5090565b5b808211156200022257600081600090555060010162000208565b5090565b60006200023d6200023784620003a1565b62000378565b9050828152602081018484840111156200025657600080fd5b6200026384828562000429565b509392505050565b6000815190506200027c816200053a565b92915050565b600081519050620002938162000554565b92915050565b600082601f830112620002ab57600080fd5b8151620002bd84826020860162000226565b91505092915050565b600081519050620002d7816200056e565b92915050565b600080600080600060a08688031215620002f657600080fd5b600062000306888289016200026b565b955050602062000319888289016200026b565b94505060406200032c8882890162000282565b93505060606200033f88828901620002c6565b925050608086015167ffffffffffffffff8111156200035d57600080fd5b6200036b8882890162000299565b9150509295509295909350565b60006200038462000397565b905062000392828262000495565b919050565b6000604051905090565b600067ffffffffffffffff821115620003bf57620003be620004fa565b5b620003ca8262000529565b9050602081019050919050565b6000620003e482620003ff565b9050919050565b6000620003f882620003d7565b9050919050565b600073ffffffffffffffffffffffffffffffffffffffff82169050919050565b6000819050919050565b60005b83811015620004495780820151818401526020810190506200042c565b8381111562000459576000848401525b50505050565b600060028204905060018216806200047857607f821691505b602082108114156200048f576200048e620004cb565b5b50919050565b620004a08262000529565b810181811067ffffffffffffffff82111715620004c257620004c1620004fa565b5b80604052505050565b7f4e487b7100000000000000000000000000000000000000000000000000000000600052602260045260246000fd5b7f4e487b7100000000000000000000000000000000000000000000000000000000600052604160045260246000fd5b6000601f19601f8301169050919050565b6200054581620003d7565b81146200055157600080fd5b50565b6200055f81620003eb565b81146200056b57600080fd5b50565b62000579816200041f565b81146200058557600080fd5b50565b612b8280620005986000396000f3fe6080604052600436106101355760003560e01c806361cac418116100ab578063c091f2131161006f578063c091f2131461039b578063c885044e146103c6578063d30895e4146103f1578063dfbf53ae1461041c578063e6489ccb14610447578063f7e1aafd1461045157610135565b806361cac418146102d8578063647782b9146102ef5780636cc6cde11461031a5780637cc3ae8c14610345578063a062fbae1461037057610135565b80631f5061e7116100fd5780631f5061e7146101ee578063200d2ed214610217578063311a6c5614610242578063345a47ea1461026b5780633f82a55d1461029657806359a5f12d146102ad57610135565b8063027405631461013a578063077df38414610165578063115068351461016f578063165977421461019a5780631d5a897f146101c3575b600080fd5b34801561014657600080fd5b5061014f61047c565b60405161015c91906123f2565b60405180910390f35b61016d610482565b005b34801561017b57600080fd5b50610184610850565b60405161019191906123f2565b60405180910390f35b3480156101a657600080fd5b506101c160048036038101906101bc9190611d9c565b610950565b005b3480156101cf57600080fd5b506101d8610be4565b6040516101e59190612124565b60405180910390f35b3480156101fa57600080fd5b5061021560048036038101906102109190611d9c565b610c0a565b005b34801561022357600080fd5b5061022c610f37565b6040516102399190612175565b60405180910390f35b34801561024e57600080fd5b5061026960048036038101906102649190611dee565b610f4a565b005b34801561027757600080fd5b506102806112fe565b60405161028d91906123f2565b60405180910390f35b3480156102a257600080fd5b506102ab611303565b005b3480156102b957600080fd5b506102c261158f565b6040516102cf9190612124565b60405180910390f35b3480156102e457600080fd5b506102ed6115b5565b005b3480156102fb57600080fd5b50610304611800565b6040516103119190612124565b60405180910390f35b34801561032657600080fd5b5061032f61199c565b60405161033c919061213f565b60405180910390f35b34801561035157600080fd5b5061035a6119c2565b60405161036791906123f2565b60405180910390f35b34801561037c57600080fd5b506103856119c8565b60405161039291906123f2565b60405180910390f35b3480156103a757600080fd5b506103b06119cd565b6040516103bd91906123f2565b60405180910390f35b3480156103d257600080fd5b506103db6119d3565b6040516103e89190612190565b60405180910390f35b3480156103fd57600080fd5b50610406611a61565b6040516104139190612124565b60405180910390f35b34801561042857600080fd5b50610431611a85565b60405161043e919061215a565b60405180910390f35b61044f611a98565b005b34801561045d57600080fd5b50610466611c5d565b60405161047391906123f2565b60405180910390f35b60075481565b60008054906101000a900473ffffffffffffffffffffffffffffffffffffffff1673ffffffffffffffffffffffffffffffffffffffff163373ffffffffffffffffffffffffffffffffffffffff1614806105295750600160009054906101000a900473ffffffffffffffffffffffffffffffffffffffff1673ffffffffffffffffffffffffffffffffffffffff163373ffffffffffffffffffffffffffffffffffffffff16145b610568576040517f08c379a000000000000000000000000000000000000000000000000000000000815260040161055f90612392565b60405180910390fd5b600560019054906101000a900473ffffffffffffffffffffffffffffffffffffffff1673ffffffffffffffffffffffffffffffffffffffff163373ffffffffffffffffffffffffffffffffffffffff1614156105f9576040517f08c379a00000000000000000000000000000000000000000000000000000000081526004016105f0906121d2565b60405180910390fd5b60016004811115610633577f4e487b7100000000000000000000000000000000000000000000000000000000600052602160045260246000fd5b600560159054906101000a900460ff16600481111561067b577f4e487b7100000000000000000000000000000000000000000000000000000000600052602160045260246000fd5b146106bb576040517f08c379a00000000000000000000000000000000000000000000000000000000081526004016106b290612352565b60405180910390fd5b60b4600454426106cb91906124be565b111561070c576040517f08c379a000000000000000000000000000000000000000000000000000000000815260040161070390612252565b60405180910390fd5b600360009054906101000a900473ffffffffffffffffffffffffffffffffffffffff1673ffffffffffffffffffffffffffffffffffffffff1663f7434ea96040518163ffffffff1660e01b815260040161076590612332565b60206040518083038186803b15801561077d57600080fd5b505afa158015610791573d6000803e3d6000fd5b505050506040513d601f19601f820116820180604052508101906107b59190611dc5565b34146107f6576040517f08c379a00000000000000000000000000000000000000000000000000000000081526004016107ed90612212565b60405180910390fd5b426006819055506002600560156101000a81548160ff02191690836004811115610849577f4e487b7100000000000000000000000000000000000000000000000000000000600052602160045260246000fd5b0217905550565b60006001600481111561088c577f4e487b7100000000000000000000000000000000000000000000000000000000600052602160045260246000fd5b600560159054906101000a900460ff1660048111156108d4577f4e487b7100000000000000000000000000000000000000000000000000000000600052602160045260246000fd5b14610914576040517f08c379a000000000000000000000000000000000000000000000000000000000815260040161090b90612232565b60405180910390fd5b60b46007544261092491906124be565b11610948574260b46007546109399190612468565b61094391906124be565b61094b565b60005b905090565b60008054906101000a900473ffffffffffffffffffffffffffffffffffffffff1673ffffffffffffffffffffffffffffffffffffffff163373ffffffffffffffffffffffffffffffffffffffff1614806109f75750600160009054906101000a900473ffffffffffffffffffffffffffffffffffffffff1673ffffffffffffffffffffffffffffffffffffffff163373ffffffffffffffffffffffffffffffffffffffff16145b610a36576040517f08c379a0000000000000000000000000000000000000000000000000000000008152600401610a2d90612392565b60405180910390fd5b60006004811115610a70577f4e487b7100000000000000000000000000000000000000000000000000000000600052602160045260246000fd5b600560159054906101000a900460ff166004811115610ab8577f4e487b7100000000000000000000000000000000000000000000000000000000600052602160045260246000fd5b14610af8576040517f08c379a0000000000000000000000000000000000000000000000000000000008152600401610aef906121b2565b60405180910390fd5b33600560016101000a81548173ffffffffffffffffffffffffffffffffffffffff021916908373ffffffffffffffffffffffffffffffffffffffff16021790555080600560006101000a81548160ff02191690836002811115610b84577f4e487b7100000000000000000000000000000000000000000000000000000000600052602160045260246000fd5b02179055506001600560156101000a81548160ff02191690836004811115610bd5577f4e487b7100000000000000000000000000000000000000000000000000000000600052602160045260246000fd5b02179055504260078190555050565b600560019054906101000a900473ffffffffffffffffffffffffffffffffffffffff1681565b60008054906101000a900473ffffffffffffffffffffffffffffffffffffffff1673ffffffffffffffffffffffffffffffffffffffff163373ffffffffffffffffffffffffffffffffffffffff161480610cb15750600160009054906101000a900473ffffffffffffffffffffffffffffffffffffffff1673ffffffffffffffffffffffffffffffffffffffff163373ffffffffffffffffffffffffffffffffffffffff16145b610cf0576040517f08c379a0000000000000000000000000000000000000000000000000000000008152600401610ce790612392565b60405180910390fd5b600560019054906101000a900473ffffffffffffffffffffffffffffffffffffffff1673ffffffffffffffffffffffffffffffffffffffff163373ffffffffffffffffffffffffffffffffffffffff161415610d81576040517f08c379a0000000000000000000000000000000000000000000000000000000008152600401610d78906121d2565b60405180910390fd5b60026004811115610dbb577f4e487b7100000000000000000000000000000000000000000000000000000000600052602160045260246000fd5b600560159054906101000a900460ff166004811115610e03577f4e487b7100000000000000000000000000000000000000000000000000000000600052602160045260246000fd5b14610e43576040517f08c379a0000000000000000000000000000000000000000000000000000000008152600401610e3a90612272565b60405180910390fd5b60b460065442610e5391906124be565b11610e93576040517f08c379a0000000000000000000000000000000000000000000000000000000008152600401610e8a906121f2565b60405180910390fd5b80600560006101000a81548160ff02191690836002811115610ede577f4e487b7100000000000000000000000000000000000000000000000000000000600052602160045260246000fd5b02179055506004600560156101000a81548160ff02191690836004811115610f2f577f4e487b7100000000000000000000000000000000000000000000000000000000600052602160045260246000fd5b021790555050565b600560159054906101000a900460ff1681565b600360009054906101000a900473ffffffffffffffffffffffffffffffffffffffff1673ffffffffffffffffffffffffffffffffffffffff163373ffffffffffffffffffffffffffffffffffffffff1614610fda576040517f08c379a0000000000000000000000000000000000000000000000000000000008152600401610fd190612372565b60405180910390fd5b60036004811115611014577f4e487b7100000000000000000000000000000000000000000000000000000000600052602160045260246000fd5b600560159054906101000a900460ff16600481111561105c577f4e487b7100000000000000000000000000000000000000000000000000000000600052602160045260246000fd5b1461109c576040517f08c379a0000000000000000000000000000000000000000000000000000000008152600401611093906122b2565b60405180910390fd5b60028111156110e0576040517f08c379a00000000000000000000000000000000000000000000000000000000081526004016110d7906122d2565b60405180910390fd5b6004600560156101000a81548160ff0219169083600481111561112c577f4e487b7100000000000000000000000000000000000000000000000000000000600052602160045260246000fd5b02179055506001600281111561116b577f4e487b7100000000000000000000000000000000000000000000000000000000600052602160045260246000fd5b8114156111de5760008054906101000a900473ffffffffffffffffffffffffffffffffffffffff1673ffffffffffffffffffffffffffffffffffffffff166108fc479081150290604051600060405180830381858888f193505050501580156111d8573d6000803e3d6000fd5b50611289565b600280811115611217577f4e487b7100000000000000000000000000000000000000000000000000000000600052602160045260246000fd5b81141561128857600160009054906101000a900473ffffffffffffffffffffffffffffffffffffffff1673ffffffffffffffffffffffffffffffffffffffff166108fc479081150290604051600060405180830381858888f19350505050158015611286573d6000803e3d6000fd5b505b5b81600360009054906101000a900473ffffffffffffffffffffffffffffffffffffffff1673ffffffffffffffffffffffffffffffffffffffff167f394027a5fa6e098a1191094d1719d6929b9abc535fcc0c8f448d6a4e75622276836040516112f291906123f2565b60405180910390a35050565b60b481565b60008054906101000a900473ffffffffffffffffffffffffffffffffffffffff1673ffffffffffffffffffffffffffffffffffffffff163373ffffffffffffffffffffffffffffffffffffffff1614806113aa5750600160009054906101000a900473ffffffffffffffffffffffffffffffffffffffff1673ffffffffffffffffffffffffffffffffffffffff163373ffffffffffffffffffffffffffffffffffffffff16145b6113e9576040517f08c379a00000000000000000000000000000000000000000000000000000000081526004016113e090612392565b60405180910390fd5b600560019054906101000a900473ffffffffffffffffffffffffffffffffffffffff1673ffffffffffffffffffffffffffffffffffffffff163373ffffffffffffffffffffffffffffffffffffffff16141561147a576040517f08c379a0000000000000000000000000000000000000000000000000000000008152600401611471906121d2565b60405180910390fd5b600160048111156114b4577f4e487b7100000000000000000000000000000000000000000000000000000000600052602160045260246000fd5b600560159054906101000a900460ff1660048111156114fc577f4e487b7100000000000000000000000000000000000000000000000000000000600052602160045260246000fd5b1461153c576040517f08c379a0000000000000000000000000000000000000000000000000000000008152600401611533906122f2565b60405180910390fd5b6004600560156101000a81548160ff02191690836004811115611588577f4e487b7100000000000000000000000000000000000000000000000000000000600052602160045260246000fd5b0217905550565b600160009054906101000a900473ffffffffffffffffffffffffffffffffffffffff1681565b60008054906101000a900473ffffffffffffffffffffffffffffffffffffffff1673ffffffffffffffffffffffffffffffffffffffff163373ffffffffffffffffffffffffffffffffffffffff16148061165c5750600160009054906101000a900473ffffffffffffffffffffffffffffffffffffffff1673ffffffffffffffffffffffffffffffffffffffff163373ffffffffffffffffffffffffffffffffffffffff16145b61169b576040517f08c379a000000000000000000000000000000000000000000000000000000000815260040161169290612392565b60405180910390fd5b600160048111156116d5577f4e487b7100000000000000000000000000000000000000000000000000000000600052602160045260246000fd5b600560159054906101000a900460ff16600481111561171d577f4e487b7100000000000000000000000000000000000000000000000000000000600052602160045260246000fd5b1461175d576040517f08c379a0000000000000000000000000000000000000000000000000000000008152600401611754906123b2565b60405180910390fd5b60b46004544261176d91906124be565b116117ad576040517f08c379a00000000000000000000000000000000000000000000000000000000081526004016117a490612292565b60405180910390fd5b6004600560156101000a81548160ff021916908360048111156117f9577f4e487b7100000000000000000000000000000000000000000000000000000000600052602160045260246000fd5b0217905550565b600060048081111561183b577f4e487b7100000000000000000000000000000000000000000000000000000000600052602160045260246000fd5b600560159054906101000a900460ff166004811115611883577f4e487b7100000000000000000000000000000000000000000000000000000000600052602160045260246000fd5b146118c3576040517f08c379a00000000000000000000000000000000000000000000000000000000081526004016118ba906123d2565b60405180910390fd5b600160028111156118fd577f4e487b7100000000000000000000000000000000000000000000000000000000600052602160045260246000fd5b600560009054906101000a900460ff166002811115611945577f4e487b7100000000000000000000000000000000000000000000000000000000600052602160045260246000fd5b14156119735760008054906101000a900473ffffffffffffffffffffffffffffffffffffffff169050611999565b600160009054906101000a900473ffffffffffffffffffffffffffffffffffffffff1690505b90565b600360009054906101000a900473ffffffffffffffffffffffffffffffffffffffff1681565b60045481565b60b481565b60065481565b600280546119e0906125cf565b80601f0160208091040260200160405190810160405280929190818152602001828054611a0c906125cf565b8015611a595780601f10611a2e57610100808354040283529160200191611a59565b820191906000526020600020905b815481529060010190602001808311611a3c57829003601f168201915b505050505081565b60008054906101000a900473ffffffffffffffffffffffffffffffffffffffff1681565b600560009054906101000a900460ff1681565b60026004811115611ad2577f4e487b7100000000000000000000000000000000000000000000000000000000600052602160045260246000fd5b600560159054906101000a900460ff166004811115611b1a577f4e487b7100000000000000000000000000000000000000000000000000000000600052602160045260246000fd5b14611b5a576040517f08c379a0000000000000000000000000000000000000000000000000000000008152600401611b5190612312565b60405180910390fd5b600360009054906101000a900473ffffffffffffffffffffffffffffffffffffffff1673ffffffffffffffffffffffffffffffffffffffff1663c13517e13460026040518363ffffffff1660e01b8152600401611bb7919061240d565b6020604051808303818588803b158015611bd057600080fd5b505af1158015611be4573d6000803e3d6000fd5b50505050506040513d601f19601f82011682018060405250810190611c099190611dc5565b506003600560156101000a81548160ff02191690836004811115611c56577f4e487b7100000000000000000000000000000000000000000000000000000000600052602160045260246000fd5b0217905550565b600060026004811115611c99577f4e487b7100000000000000000000000000000000000000000000000000000000600052602160045260246000fd5b600560159054906101000a900460ff166004811115611ce1577f4e487b7100000000000000000000000000000000000000000000000000000000600052602160045260246000fd5b14611d21576040517f08c379a0000000000000000000000000000000000000000000000000000000008152600401611d1890612272565b60405180910390fd5b60b460065442611d3191906124be565b11611d55574260b4600654611d469190612468565b611d5091906124be565b611d58565b60005b905090565b600081359050611d6c81612b25565b92915050565b600081359050611d8181612b35565b92915050565b600081519050611d9681612b35565b92915050565b600060208284031215611dae57600080fd5b6000611dbc84828501611d5d565b91505092915050565b600060208284031215611dd757600080fd5b6000611de584828501611d87565b91505092915050565b60008060408385031215611e0157600080fd5b6000611e0f85828601611d72565b9250506020611e2085828601611d72565b9150509250929050565b611e33816124f2565b82525050565b611e4281612554565b82525050565b611e5181612578565b82525050565b611e608161258a565b82525050565b6000611e718261243b565b611e7b8185612457565b9350611e8b81856020860161259c565b611e948161268e565b840191505092915050565b6000611eac602483612457565b9150611eb78261269f565b604082019050919050565b6000611ecf602883612457565b9150611eda826126ee565b604082019050919050565b6000611ef2603383612457565b9150611efd8261273d565b604082019050919050565b6000611f15603783612457565b9150611f208261278c565b604082019050919050565b6000611f38602383612457565b9150611f43826127db565b604082019050919050565b6000611f5b601583612457565b9150611f668261282a565b602082019050919050565b6000611f7e602083612457565b9150611f8982612853565b602082019050919050565b6000611fa1602283612457565b9150611fac8261287c565b604082019050919050565b6000611fc4602c83612457565b9150611fcf826128cb565b604082019050919050565b6000611fe7601583612457565b9150611ff28261291a565b602082019050919050565b600061200a602683612457565b915061201582612943565b604082019050919050565b600061202d602083612457565b915061203882612992565b602082019050919050565b6000612050600083612446565b915061205b826129bb565b600082019050919050565b6000612073602083612457565b915061207e826129be565b602082019050919050565b6000612096602583612457565b91506120a1826129e7565b604082019050919050565b60006120b9602283612457565b91506120c482612a36565b604082019050919050565b60006120dc602783612457565b91506120e782612a85565b604082019050919050565b60006120ff601c83612457565b915061210a82612ad4565b602082019050919050565b61211e8161254a565b82525050565b60006020820190506121396000830184611e2a565b92915050565b60006020820190506121546000830184611e39565b92915050565b600060208201905061216f6000830184611e48565b92915050565b600060208201905061218a6000830184611e57565b92915050565b600060208201905081810360008301526121aa8184611e66565b905092915050565b600060208201905081810360008301526121cb81611e9f565b9050919050565b600060208201905081810360008301526121eb81611ec2565b9050919050565b6000602082019050818103600083015261220b81611ee5565b9050919050565b6000602082019050818103600083015261222b81611f08565b9050919050565b6000602082019050818103600083015261224b81611f2b565b9050919050565b6000602082019050818103600083015261226b81611f4e565b9050919050565b6000602082019050818103600083015261228b81611f71565b9050919050565b600060208201905081810360008301526122ab81611f94565b9050919050565b600060208201905081810360008301526122cb81611fb7565b9050919050565b600060208201905081810360008301526122eb81611fda565b9050919050565b6000602082019050818103600083015261230b81611ffd565b9050919050565b6000602082019050818103600083015261232b81612020565b9050919050565b6000602082019050818103600083015261234b81612043565b9050919050565b6000602082019050818103600083015261236b81612066565b9050919050565b6000602082019050818103600083015261238b81612089565b9050919050565b600060208201905081810360008301526123ab816120ac565b9050919050565b600060208201905081810360008301526123cb816120cf565b9050919050565b600060208201905081810360008301526123eb816120f2565b9050919050565b60006020820190506124076000830184612115565b92915050565b60006040820190506124226000830184612115565b818103602083015261243381612043565b905092915050565b600081519050919050565b600082825260208201905092915050565b600082825260208201905092915050565b60006124738261254a565b915061247e8361254a565b9250827fffffffffffffffffffffffffffffffffffffffffffffffffffffffffffffffff038211156124b3576124b2612601565b5b828201905092915050565b60006124c98261254a565b91506124d48361254a565b9250828210156124e7576124e6612601565b5b828203905092915050565b60006124fd8261252a565b9050919050565b600081905061251282612afd565b919050565b600081905061252582612b11565b919050565b600073ffffffffffffffffffffffffffffffffffffffff82169050919050565b6000819050919050565b600061255f82612566565b9050919050565b60006125718261252a565b9050919050565b600061258382612504565b9050919050565b600061259582612517565b9050919050565b60005b838110156125ba57808201518184015260208101905061259f565b838111156125c9576000848401525b50505050565b600060028204905060018216806125e757607f821691505b602082108114156125fb576125fa61265f565b5b50919050565b7f4e487b7100000000000000000000000000000000000000000000000000000000600052601160045260246000fd5b7f4e487b7100000000000000000000000000000000000000000000000000000000600052602160045260246000fd5b7f4e487b7100000000000000000000000000000000000000000000000000000000600052602260045260246000fd5b6000601f19601f8301169050919050565b7f4f6e6c7920696e6974616c206d6174636865732063616e20626520616e6e6f7560008201527f6e63656400000000000000000000000000000000000000000000000000000000602082015250565b7f43616e206f6e6c792062652063616c6c656420627920746865206e6f7420616e60008201527f6e6f756e6365722e000000000000000000000000000000000000000000000000602082015250565b7f416e6e6f756e636572207374696c6c206861732074696d6520746f206465706f60008201527f736974206172626974726174696f6e2066656500000000000000000000000000602082015250565b7f43616e2774207265636c61696d2066756e647320776974686f7574206465706f60008201527f736974696e67206172626974726174696f6e206665652e000000000000000000602082015250565b7f4d61746368206973206e6f7420696e20616e20616e6e6f756e6365642073746160008201527f74652e0000000000000000000000000000000000000000000000000000000000602082015250565b7f50726f7465737420706572696f6420656e6465642e0000000000000000000000600082015250565b7f4d61746368206973206e6f7420696e2070726f7465737465642073746174652e600082015250565b7f4f706f6e656e74207374696c6c206861732074696d6520746f2070726f74657360008201527f742e000000000000000000000000000000000000000000000000000000000000602082015250565b7f54686572652073686f756c64206265206469737075746520746f20657865637560008201527f746520612072756c696e672e0000000000000000000000000000000000000000602082015250565b7f52756c696e67206f7574206f6620626f756e6473210000000000000000000000600082015250565b7f4f6e6c7920616e6e6f756e636564206d6174636865732063616e20626520616360008201527f6370657465640000000000000000000000000000000000000000000000000000602082015250565b7f4d61746368206973206e6f7420696e2050726f7465737465642073746174652e600082015250565b50565b7f4d61746368206973206e6f7420696e20616e6e6f756e6365642073746174652e600082015250565b7f4f6e6c79207468652061726269747261746f722063616e20657865637574652060008201527f746869732e000000000000000000000000000000000000000000000000000000602082015250565b7f43616e206f6e6c792062652063616c6c65642062792074686520706c6179657260008201527f732e000000000000000000000000000000000000000000000000000000000000602082015250565b7f4f6e6c7920616e6e6f756e636564206d6174636865732063616e20626520666960008201527f6e616c697a656400000000000000000000000000000000000000000000000000602082015250565b7f57696e6e6572206973206e6f742066696e616c697a6564207965742e00000000600082015250565b60038110612b0e57612b0d612630565b5b50565b60058110612b2257612b21612630565b5b50565b60038110612b3257600080fd5b50565b612b3e8161254a565b8114612b4957600080fd5b5056fea2646970667358221220b921785fcc66bac99900582f89aa0a8963e3a25d70f7bc4bd5b3da294ef87d2764736f6c63430008040033",
  "immutableReferences": {},
  "source": "/**\n * SPDX-License-Identifier: MIT\n */\npragma solidity >=0.7;\n\nimport \"./IArbitrable.sol\";\nimport \"./IArbitrator.sol\";\n\ncontract DeMatch is IArbitrable {\n    address public player1;\n    address public player2;\n    string public meta;\n    IArbitrator public arbitrator;\n\n    uint256 public endAt;\n    uint256 public constant protestPeriod = 3 minutes; // Timeframe is short on purpose to be able to test it quickly. Not for production use.\n    uint256 public constant arbitrationFeeDepositPeriod = 3 minutes; // Timeframe is short on purpose to be able to test it quickly. Not for production use.\n\n    enum Player {\n        None,\n        Player1,\n        Player2\n    }\n\n    Player public winner;\n    address public announcer;\n\n    enum Status {\n        Initial,\n        Announced,\n        Protested,\n        Disputed,\n        Resolved\n    }\n    Status public status;\n\n    uint256 public protestAt;\n    uint256 public announcedAt;\n\n    enum RulingOptions {\n        RefusedToArbitrate,\n        PlayerOneWins,\n        PlayerTwoWins\n    }\n    uint256 constant numberOfRulingOptions = 2; // Notice that option 0 is reserved for RefusedToArbitrate.\n\n    constructor(\n        address _player1,\n        address _player2,\n        IArbitrator _arbitrator,\n        uint256 _endAt,\n        string memory _meta\n    ) {\n        player1 = _player1;\n        player2 = _player2;\n        arbitrator = _arbitrator;\n        endAt = _endAt;\n        status = Status.Initial;\n        meta = _meta;\n    }\n\n    modifier onlyPlayer() {\n        require(\n            msg.sender == player1 || msg.sender == player2,\n            \"Can only be called by the players.\"\n        );\n        _;\n    }\n\n    modifier notAnouncer() {\n        require(\n            msg.sender != announcer,\n            \"Can only be called by the not announcer.\"\n        );\n        _;\n    }\n\n    // announce winner\n    function announceWinner(Player _winner) public onlyPlayer {\n        require(\n            status == Status.Initial,\n            \"Only inital matches can be announced\"\n        );\n        announcer = msg.sender;\n        winner = _winner;\n        status = Status.Announced;\n        announcedAt = block.timestamp;\n    }\n\n    function finalizeResult() public onlyPlayer {\n        require(\n            status == Status.Announced,\n            \"Only announced matches can be finalized\"\n        );\n        require(\n            block.timestamp - endAt > protestPeriod,\n            \"Oponent still has time to protest.\"\n        );\n        status = Status.Resolved;\n    }\n\n    // accept result\n    function acceptResult() public onlyPlayer notAnouncer {\n        require(\n            status == Status.Announced,\n            \"Only announced matches can be accpeted\"\n        );\n        status = Status.Resolved;\n    }\n\n    // protest result\n    function protestResult() public payable onlyPlayer notAnouncer {\n        require(status == Status.Announced, \"Match is not in announced state.\");\n        require(\n            block.timestamp - endAt <= protestPeriod,\n            \"Protest period ended.\"\n        );\n        require(\n            msg.value == arbitrator.arbitrationCost(\"\"),\n            \"Can't reclaim funds without depositing arbitration fee.\"\n        );\n        protestAt = block.timestamp;\n        status = Status.Protested;\n    }\n\n    function revertResult(Player _winner) public onlyPlayer notAnouncer {\n        require(status == Status.Protested, \"Match is not in protested state.\");\n\n        require(\n            block.timestamp - protestAt > arbitrationFeeDepositPeriod,\n            \"Announcer still has time to deposit arbitration fee\"\n        );\n\n        winner = _winner;\n        status = Status.Resolved;\n    }\n\n    function depositArbitrationFeeForAnnouncer() public payable {\n        require(status == Status.Protested, \"Match is not in Protested state.\");\n        arbitrator.createDispute{value: msg.value}(numberOfRulingOptions, \"\");\n        status = Status.Disputed;\n    }\n\n    function rule(uint256 _disputeID, uint256 _ruling) public override {\n        require(\n            msg.sender == address(arbitrator),\n            \"Only the arbitrator can execute this.\"\n        );\n        require(\n            status == Status.Disputed,\n            \"There should be dispute to execute a ruling.\"\n        );\n        require(_ruling <= numberOfRulingOptions, \"Ruling out of bounds!\");\n\n        status = Status.Resolved;\n        if (_ruling == uint256(RulingOptions.PlayerOneWins))\n            payable(player1).transfer(address(this).balance);\n        else if (_ruling == uint256(RulingOptions.PlayerTwoWins))\n            payable(player2).transfer(address(this).balance);\n        emit Ruling(arbitrator, _disputeID, _ruling);\n    }\n\n    function remainingTimeToProtest() public view returns (uint256) {\n        require(\n            status == Status.Announced,\n            \"Match is not in an announced state.\"\n        );\n        return\n            (block.timestamp - announcedAt) > protestPeriod\n                ? 0\n                : (announcedAt + protestPeriod - block.timestamp);\n    }\n\n    function remainingTimeToDepositArbitrationFee()\n        public\n        view\n        returns (uint256)\n    {\n        require(status == Status.Protested, \"Match is not in protested state.\");\n        return\n            (block.timestamp - protestAt) > arbitrationFeeDepositPeriod\n                ? 0\n                : (protestAt + arbitrationFeeDepositPeriod - block.timestamp);\n    }\n\n    function finalizedWinner() public view returns (address) {\n        require(status == Status.Resolved, \"Winner is not finalized yet.\");\n        if (winner == Player.Player1) {\n            return player1;\n        } else {\n            return player2;\n        }\n    }\n}\n",
  "sourcePath": "/home/ajand/Desktop/projects/web3/kleros/contracts/DeMatch.sol",
  "compiler": {
    "name": "solc",
    "version": "0.8.4+commit.c7e474f2.Emscripten.clang"
  },
  "schemaVersion": "3.4.1",
  "updatedAt": "2021-07-25T13:44:47.538Z",
  "devdoc": {
    "kind": "dev",
    "methods": {
      "rule(uint256,uint256)": {
        "details": "Give a ruling for a dispute. Must be called by the arbitrator. The purpose of this function is to ensure that the address calling it has the right to rule on the contract.",
        "params": {
          "_disputeID": "ID of the dispute in the Arbitrator contract.",
          "_ruling": "Ruling given by the arbitrator. Note that 0 is reserved for \"Not able/wanting to make a decision\"."
        }
      }
    },
    "version": 1
  },
  "userdoc": {
    "kind": "user",
    "methods": {},
    "version": 1
  }
}