{
  "contractName": "SimpleTournaments",
  "abi": [
    {
      "inputs": [
        {
          "internalType": "contract IArbitrator",
          "name": "_arbitrator",
          "type": "address"
        }
      ],
      "stateMutability": "nonpayable",
      "type": "constructor"
    },
    {
      "inputs": [
        {
          "internalType": "uint256",
          "name": "",
          "type": "uint256"
        }
      ],
      "name": "matches",
      "outputs": [
        {
          "internalType": "contract DeMatch",
          "name": "",
          "type": "address"
        }
      ],
      "stateMutability": "view",
      "type": "function"
    },
    {
      "inputs": [
        {
          "internalType": "uint256",
          "name": "",
          "type": "uint256"
        }
      ],
      "name": "proposedMatches",
      "outputs": [
        {
          "internalType": "address",
          "name": "proposer",
          "type": "address"
        },
        {
          "internalType": "uint256",
          "name": "amount",
          "type": "uint256"
        },
        {
          "internalType": "bool",
          "name": "open",
          "type": "bool"
        },
        {
          "internalType": "string",
          "name": "title",
          "type": "string"
        }
      ],
      "stateMutability": "view",
      "type": "function"
    },
    {
      "inputs": [
        {
          "internalType": "string",
          "name": "_title",
          "type": "string"
        }
      ],
      "name": "proposeMatch",
      "outputs": [
        {
          "internalType": "uint256",
          "name": "",
          "type": "uint256"
        }
      ],
      "stateMutability": "payable",
      "type": "function"
    },
    {
      "inputs": [
        {
          "internalType": "uint256",
          "name": "_proposalId",
          "type": "uint256"
        }
      ],
      "name": "endProposal",
      "outputs": [],
      "stateMutability": "nonpayable",
      "type": "function"
    },
    {
      "inputs": [
        {
          "internalType": "uint256",
          "name": "_proposalId",
          "type": "uint256"
        }
      ],
      "name": "getProposalAmount",
      "outputs": [
        {
          "internalType": "uint256",
          "name": "",
          "type": "uint256"
        }
      ],
      "stateMutability": "view",
      "type": "function"
    },
    {
      "inputs": [
        {
          "internalType": "uint256",
          "name": "_proposalId",
          "type": "uint256"
        }
      ],
      "name": "acceptProposal",
      "outputs": [
        {
          "internalType": "uint256",
          "name": "",
          "type": "uint256"
        }
      ],
      "stateMutability": "payable",
      "type": "function"
    },
    {
      "inputs": [
        {
          "internalType": "uint256",
          "name": "_matchId",
          "type": "uint256"
        }
      ],
      "name": "withdrawFunds",
      "outputs": [],
      "stateMutability": "nonpayable",
      "type": "function"
    },
    {
      "inputs": [],
      "name": "getMatches",
      "outputs": [
        {
          "internalType": "contract DeMatch[]",
          "name": "",
          "type": "address[]"
        }
      ],
      "stateMutability": "view",
      "type": "function"
    },
    {
      "inputs": [],
      "name": "getProposals",
      "outputs": [
        {
          "components": [
            {
              "internalType": "address",
              "name": "proposer",
              "type": "address"
            },
            {
              "internalType": "uint256",
              "name": "amount",
              "type": "uint256"
            },
            {
              "internalType": "bool",
              "name": "open",
              "type": "bool"
            },
            {
              "internalType": "string",
              "name": "title",
              "type": "string"
            }
          ],
          "internalType": "struct SimpleTournaments.MatchProposal[]",
          "name": "",
          "type": "tuple[]"
        }
      ],
      "stateMutability": "view",
      "type": "function"
    }
  ],
  "bytecode": "0x60806040523480156200001157600080fd5b506040516200502a3803806200502a833981810160405281019062000037919062000096565b80600360006101000a81548173ffffffffffffffffffffffffffffffffffffffff021916908373ffffffffffffffffffffffffffffffffffffffff1602179055505062000124565b60008151905062000090816200010a565b92915050565b600060208284031215620000a957600080fd5b6000620000b9848285016200007f565b91505092915050565b6000620000cf82620000ea565b9050919050565b6000620000e382620000c2565b9050919050565b600073ffffffffffffffffffffffffffffffffffffffff82169050919050565b6200011581620000d6565b81146200012157600080fd5b50565b614ef680620001346000396000f3fe608060405260043610620000925760003560e01c806360c5cc3a116200006157806360c5cc3a146200017d57806362564c4814620001b3578063a07bd40014620001e3578063a2f47f6a1462000211578063e82ab4b714620002585762000092565b8063155dd5ee14620000975780632b842d4214620000c55780632c70120e14620001095780634768d4ef1462000139575b600080fd5b348015620000a457600080fd5b50620000c36004803603810190620000bd91906200131a565b6200028e565b005b348015620000d257600080fd5b50620000f16004803603810190620000eb91906200131a565b620004b8565b60405162000100919062001871565b60405180910390f35b3480156200011657600080fd5b50620001216200050e565b60405162000130919062001762565b60405180910390f35b3480156200014657600080fd5b506200016560048036038101906200015f91906200131a565b6200059e565b604051620001749190620017aa565b60405180910390f35b6200019b60048036038101906200019591906200131a565b620005de565b604051620001aa919062001871565b60405180910390f35b348015620001c057600080fd5b50620001cb62000a1d565b604051620001da919062001786565b60405180910390f35b348015620001f057600080fd5b506200020f60048036038101906200020991906200131a565b62000b93565b005b3480156200021e57600080fd5b506200023d60048036038101906200023791906200131a565b62000f39565b6040516200024f94939291906200170e565b60405180910390f35b620002766004803603810190620002709190620012d5565b62001037565b60405162000285919062001871565b60405180910390f35b600015156001600083815260200190815260200160002060010160009054906101000a900460ff16151514620002fb576040517f08c379a0000000000000000000000000000000000000000000000000000000008152600401620002f2906200184f565b60405180910390fd5b600080828154811062000337577f4e487b7100000000000000000000000000000000000000000000000000000000600052603260045260246000fd5b9060005260206000200160009054906101000a900473ffffffffffffffffffffffffffffffffffffffff1690503373ffffffffffffffffffffffffffffffffffffffff168173ffffffffffffffffffffffffffffffffffffffff1663647782b96040518163ffffffff1660e01b815260040160206040518083038186803b158015620003c257600080fd5b505afa158015620003d7573d6000803e3d6000fd5b505050506040513d601f19601f82011682018060405250810190620003fd9190620012a9565b73ffffffffffffffffffffffffffffffffffffffff161462000456576040517f08c379a00000000000000000000000000000000000000000000000000000000081526004016200044d906200180b565b60405180910390fd5b3373ffffffffffffffffffffffffffffffffffffffff166108fc60016000858152602001908152602001600020600001549081150290604051600060405180830381858888f19350505050158015620004b3573d6000803e3d6000fd5b505050565b600060028281548110620004f5577f4e487b7100000000000000000000000000000000000000000000000000000000600052603260045260246000fd5b9060005260206000209060040201600101549050919050565b606060008054806020026020016040519081016040528092919081815260200182805480156200059457602002820191906000526020600020905b8160009054906101000a900473ffffffffffffffffffffffffffffffffffffffff1673ffffffffffffffffffffffffffffffffffffffff168152602001906001019080831162000549575b5050505050905090565b60008181548110620005af57600080fd5b906000526020600020016000915054906101000a900473ffffffffffffffffffffffffffffffffffffffff1681565b600080600283815481106200061c577f4e487b7100000000000000000000000000000000000000000000000000000000600052603260045260246000fd5b90600052602060002090600402016040518060800160405290816000820160009054906101000a900473ffffffffffffffffffffffffffffffffffffffff1673ffffffffffffffffffffffffffffffffffffffff1673ffffffffffffffffffffffffffffffffffffffff168152602001600182015481526020016002820160009054906101000a900460ff16151515158152602001600382018054620006c29062001b03565b80601f0160208091040260200160405190810160405280929190818152602001828054620006f09062001b03565b8015620007415780601f10620007155761010080835404028352916020019162000741565b820191906000526020600020905b8154815290600101906020018083116200072357829003601f168201915b5050505050815250509050806020015134101562000796576040517f08c379a00000000000000000000000000000000000000000000000000000000081526004016200078d90620017e9565b60405180910390fd5b6040518060800160405280826000015173ffffffffffffffffffffffffffffffffffffffff1681526020018260200151815260200160001515815260200182606001518152506002848154811062000817577f4e487b7100000000000000000000000000000000000000000000000000000000600052603260045260246000fd5b906000526020600020906004020160008201518160000160006101000a81548173ffffffffffffffffffffffffffffffffffffffff021916908373ffffffffffffffffffffffffffffffffffffffff1602179055506020820151816001015560408201518160020160006101000a81548160ff0219169083151502179055506060820151816003019080519060200190620008b49291906200114b565b509050506000816000015133600360009054906101000a900473ffffffffffffffffffffffffffffffffffffffff16428560600151604051620008f790620011dc565b62000907959493929190620016aa565b604051809103906000f08015801562000924573d6000803e3d6000fd5b509080600181540180825580915050600190039060005260206000200160009091909190916101000a81548173ffffffffffffffffffffffffffffffffffffffff021916908373ffffffffffffffffffffffffffffffffffffffff1602179055506040518060400160405280348360200151620009a291906200198c565b815260200160001515815250600160006001600080549050620009c69190620019e9565b81526020019081526020016000206000820151816000015560208201518160010160006101000a81548160ff021916908315150217905550905050600160008054905062000a159190620019e9565b915050919050565b60606002805480602002602001604051908101604052809291908181526020016000905b8282101562000b8a57838290600052602060002090600402016040518060800160405290816000820160009054906101000a900473ffffffffffffffffffffffffffffffffffffffff1673ffffffffffffffffffffffffffffffffffffffff1673ffffffffffffffffffffffffffffffffffffffff168152602001600182015481526020016002820160009054906101000a900460ff1615151515815260200160038201805462000af29062001b03565b80601f016020809104026020016040519081016040528092919081815260200182805462000b209062001b03565b801562000b715780601f1062000b455761010080835404028352916020019162000b71565b820191906000526020600020905b81548152906001019060200180831162000b5357829003601f168201915b5050505050815250508152602001906001019062000a41565b50505050905090565b60006002828154811062000bd0577f4e487b7100000000000000000000000000000000000000000000000000000000600052603260045260246000fd5b90600052602060002090600402016040518060800160405290816000820160009054906101000a900473ffffffffffffffffffffffffffffffffffffffff1673ffffffffffffffffffffffffffffffffffffffff1673ffffffffffffffffffffffffffffffffffffffff168152602001600182015481526020016002820160009054906101000a900460ff1615151515815260200160038201805462000c769062001b03565b80601f016020809104026020016040519081016040528092919081815260200182805462000ca49062001b03565b801562000cf55780601f1062000cc95761010080835404028352916020019162000cf5565b820191906000526020600020905b81548152906001019060200180831162000cd757829003601f168201915b5050505050815250509050806000015173ffffffffffffffffffffffffffffffffffffffff163373ffffffffffffffffffffffffffffffffffffffff161462000d75576040517f08c379a000000000000000000000000000000000000000000000000000000000815260040162000d6c90620017c7565b60405180910390fd5b60011515816040015115151462000dc3576040517f08c379a000000000000000000000000000000000000000000000000000000000815260040162000dba906200182d565b60405180910390fd5b6040518060800160405280826000015173ffffffffffffffffffffffffffffffffffffffff1681526020018260200151815260200160001515815260200182606001518152506002838154811062000e44577f4e487b7100000000000000000000000000000000000000000000000000000000600052603260045260246000fd5b906000526020600020906004020160008201518160000160006101000a81548173ffffffffffffffffffffffffffffffffffffffff021916908373ffffffffffffffffffffffffffffffffffffffff1602179055506020820151816001015560408201518160020160006101000a81548160ff021916908315150217905550606082015181600301908051906020019062000ee19291906200114b565b50905050806000015173ffffffffffffffffffffffffffffffffffffffff166108fc82602001519081150290604051600060405180830381858888f1935050505015801562000f34573d6000803e3d6000fd5b505050565b6002818154811062000f4a57600080fd5b90600052602060002090600402016000915090508060000160009054906101000a900473ffffffffffffffffffffffffffffffffffffffff16908060010154908060020160009054906101000a900460ff169080600301805462000fae9062001b03565b80601f016020809104026020016040519081016040528092919081815260200182805462000fdc9062001b03565b80156200102d5780601f1062001001576101008083540402835291602001916200102d565b820191906000526020600020905b8154815290600101906020018083116200100f57829003601f168201915b5050505050905084565b6000600260405180608001604052803373ffffffffffffffffffffffffffffffffffffffff16815260200134815260200160011515815260200184815250908060018154018082558091505060019003906000526020600020906004020160009091909190915060008201518160000160006101000a81548173ffffffffffffffffffffffffffffffffffffffff021916908373ffffffffffffffffffffffffffffffffffffffff1602179055506020820151816001015560408201518160020160006101000a81548160ff02191690831515021790555060608201518160030190805190602001906200112d9291906200114b565b5050506001600280549050620011449190620019e9565b9050919050565b828054620011599062001b03565b90600052602060002090601f0160209004810192826200117d5760008555620011c9565b82601f106200119857805160ff1916838001178555620011c9565b82800160010185558215620011c9579182015b82811115620011c8578251825591602001919060010190620011ab565b5b509050620011d89190620011ea565b5090565b61311a8062001da783390190565b5b8082111562001205576000816000905550600101620011eb565b5090565b6000620012206200121a84620018b7565b6200188e565b9050828152602081018484840111156200123957600080fd5b6200124684828562001abe565b509392505050565b6000815190506200125f8162001d72565b92915050565b600082601f8301126200127757600080fd5b81356200128984826020860162001209565b91505092915050565b600081359050620012a38162001d8c565b92915050565b600060208284031215620012bc57600080fd5b6000620012cc848285016200124e565b91505092915050565b600060208284031215620012e857600080fd5b600082013567ffffffffffffffff8111156200130357600080fd5b620013118482850162001265565b91505092915050565b6000602082840312156200132d57600080fd5b60006200133d8482850162001292565b91505092915050565b6000620013548383620014a5565b60208301905092915050565b60006200136e83836200161d565b905092915050565b620013818162001a24565b82525050565b620013928162001a24565b82525050565b6000620013a5826200190d565b620013b1818562001948565b9350620013be83620018ed565b8060005b83811015620013f5578151620013d9888262001346565b9750620013e6836200192e565b925050600181019050620013c2565b5085935050505092915050565b60006200140f8262001918565b6200141b818562001959565b9350836020820285016200142f85620018fd565b8060005b858110156200147157848403895281516200144f858262001360565b94506200145c836200193b565b925060208a0199505060018101905062001433565b50829750879550505050505092915050565b6200148e8162001a38565b82525050565b6200149f8162001a38565b82525050565b620014b08162001a6e565b82525050565b620014c18162001a6e565b82525050565b620014d28162001a96565b82525050565b6000620014e58262001923565b620014f181856200196a565b93506200150381856020860162001acd565b6200150e8162001bfc565b840191505092915050565b6000620015268262001923565b6200153281856200197b565b93506200154481856020860162001acd565b6200154f8162001bfc565b840191505092915050565b6000620015696019836200197b565b9150620015768262001c0d565b602082019050919050565b600062001590602e836200197b565b91506200159d8262001c36565b604082019050919050565b6000620015b7602a836200197b565b9150620015c48262001c85565b604082019050919050565b6000620015de6023836200197b565b9150620015eb8262001cd4565b604082019050919050565b6000620016056021836200197b565b9150620016128262001d23565b604082019050919050565b600060808301600083015162001637600086018262001376565b5060208301516200164c602086018262001688565b50604083015162001661604086018262001483565b50606083015184820360608601526200167b8282620014d8565b9150508091505092915050565b620016938162001a64565b82525050565b620016a48162001a64565b82525050565b600060a082019050620016c1600083018862001387565b620016d0602083018762001387565b620016df6040830186620014c7565b620016ee606083018562001699565b818103608083015262001702818462001519565b90509695505050505050565b600060808201905062001725600083018762001387565b62001734602083018662001699565b62001743604083018562001494565b818103606083015262001757818462001519565b905095945050505050565b600060208201905081810360008301526200177e818462001398565b905092915050565b60006020820190508181036000830152620017a2818462001402565b905092915050565b6000602082019050620017c16000830184620014b6565b92915050565b60006020820190508181036000830152620017e2816200155a565b9050919050565b60006020820190508181036000830152620018048162001581565b9050919050565b600060208201905081810360008301526200182681620015a8565b9050919050565b600060208201905081810360008301526200184881620015cf565b9050919050565b600060208201905081810360008301526200186a81620015f6565b9050919050565b600060208201905062001888600083018462001699565b92915050565b60006200189a620018ad565b9050620018a8828262001b39565b919050565b6000604051905090565b600067ffffffffffffffff821115620018d557620018d462001bcd565b5b620018e08262001bfc565b9050602081019050919050565b6000819050602082019050919050565b6000819050602082019050919050565b600081519050919050565b600081519050919050565b600081519050919050565b6000602082019050919050565b6000602082019050919050565b600082825260208201905092915050565b600082825260208201905092915050565b600082825260208201905092915050565b600082825260208201905092915050565b6000620019998262001a64565b9150620019a68362001a64565b9250827fffffffffffffffffffffffffffffffffffffffffffffffffffffffffffffffff03821115620019de57620019dd62001b6f565b5b828201905092915050565b6000620019f68262001a64565b915062001a038362001a64565b92508282101562001a195762001a1862001b6f565b5b828203905092915050565b600062001a318262001a44565b9050919050565b60008115159050919050565b600073ffffffffffffffffffffffffffffffffffffffff82169050919050565b6000819050919050565b600062001a7b8262001a82565b9050919050565b600062001a8f8262001a44565b9050919050565b600062001aa38262001aaa565b9050919050565b600062001ab78262001a44565b9050919050565b82818337600083830152505050565b60005b8381101562001aed57808201518184015260208101905062001ad0565b8381111562001afd576000848401525b50505050565b6000600282049050600182168062001b1c57607f821691505b6020821081141562001b335762001b3262001b9e565b5b50919050565b62001b448262001bfc565b810181811067ffffffffffffffff8211171562001b665762001b6562001bcd565b5b80604052505050565b7f4e487b7100000000000000000000000000000000000000000000000000000000600052601160045260246000fd5b7f4e487b7100000000000000000000000000000000000000000000000000000000600052602260045260246000fd5b7f4e487b7100000000000000000000000000000000000000000000000000000000600052604160045260246000fd5b6000601f19601f8301169050919050565b7f4f6e6c792070726f706f73657220616e6420656e642069742e00000000000000600082015250565b7f596f75206d75737420706179207468652070726f706f73616c20616d6f756e7460008201527f20746f206163636570742069742e000000000000000000000000000000000000602082015250565b7f596f75277265206e6f742074686973206d617463682077696e6e65722e20417460008201527f6c65617374207965742e00000000000000000000000000000000000000000000602082015250565b7f50726f706f73616c206973206e6f7420696e20616e20656e6461626c6520737460008201527f6174650000000000000000000000000000000000000000000000000000000000602082015250565b7f54686973206d6174636820697320616c7265616479207769746864726177656460008201527f2e00000000000000000000000000000000000000000000000000000000000000602082015250565b62001d7d8162001a24565b811462001d8957600080fd5b50565b62001d978162001a64565b811462001da357600080fd5b5056fe60806040523480156200001157600080fd5b506040516200311a3803806200311a8339818101604052810190620000379190620002dd565b846000806101000a81548173ffffffffffffffffffffffffffffffffffffffff021916908373ffffffffffffffffffffffffffffffffffffffff16021790555083600160006101000a81548173ffffffffffffffffffffffffffffffffffffffff021916908373ffffffffffffffffffffffffffffffffffffffff16021790555082600360006101000a81548173ffffffffffffffffffffffffffffffffffffffff021916908373ffffffffffffffffffffffffffffffffffffffff160217905550816004819055506000600560156101000a81548160ff021916908360048111156200014d577f4e487b7100000000000000000000000000000000000000000000000000000000600052602160045260246000fd5b021790555080600290805190602001906200016a92919062000176565b50505050505062000588565b82805462000184906200045f565b90600052602060002090601f016020900481019282620001a85760008555620001f4565b82601f10620001c357805160ff1916838001178555620001f4565b82800160010185558215620001f4579182015b82811115620001f3578251825591602001919060010190620001d6565b5b50905062000203919062000207565b5090565b5b808211156200022257600081600090555060010162000208565b5090565b60006200023d6200023784620003a1565b62000378565b9050828152602081018484840111156200025657600080fd5b6200026384828562000429565b509392505050565b6000815190506200027c816200053a565b92915050565b600081519050620002938162000554565b92915050565b600082601f830112620002ab57600080fd5b8151620002bd84826020860162000226565b91505092915050565b600081519050620002d7816200056e565b92915050565b600080600080600060a08688031215620002f657600080fd5b600062000306888289016200026b565b955050602062000319888289016200026b565b94505060406200032c8882890162000282565b93505060606200033f88828901620002c6565b925050608086015167ffffffffffffffff8111156200035d57600080fd5b6200036b8882890162000299565b9150509295509295909350565b60006200038462000397565b905062000392828262000495565b919050565b6000604051905090565b600067ffffffffffffffff821115620003bf57620003be620004fa565b5b620003ca8262000529565b9050602081019050919050565b6000620003e482620003ff565b9050919050565b6000620003f882620003d7565b9050919050565b600073ffffffffffffffffffffffffffffffffffffffff82169050919050565b6000819050919050565b60005b83811015620004495780820151818401526020810190506200042c565b8381111562000459576000848401525b50505050565b600060028204905060018216806200047857607f821691505b602082108114156200048f576200048e620004cb565b5b50919050565b620004a08262000529565b810181811067ffffffffffffffff82111715620004c257620004c1620004fa565b5b80604052505050565b7f4e487b7100000000000000000000000000000000000000000000000000000000600052602260045260246000fd5b7f4e487b7100000000000000000000000000000000000000000000000000000000600052604160045260246000fd5b6000601f19601f8301169050919050565b6200054581620003d7565b81146200055157600080fd5b50565b6200055f81620003eb565b81146200056b57600080fd5b50565b62000579816200041f565b81146200058557600080fd5b50565b612b8280620005986000396000f3fe6080604052600436106101355760003560e01c806361cac418116100ab578063c091f2131161006f578063c091f2131461039b578063c885044e146103c6578063d30895e4146103f1578063dfbf53ae1461041c578063e6489ccb14610447578063f7e1aafd1461045157610135565b806361cac418146102d8578063647782b9146102ef5780636cc6cde11461031a5780637cc3ae8c14610345578063a062fbae1461037057610135565b80631f5061e7116100fd5780631f5061e7146101ee578063200d2ed214610217578063311a6c5614610242578063345a47ea1461026b5780633f82a55d1461029657806359a5f12d146102ad57610135565b8063027405631461013a578063077df38414610165578063115068351461016f578063165977421461019a5780631d5a897f146101c3575b600080fd5b34801561014657600080fd5b5061014f61047c565b60405161015c91906123f2565b60405180910390f35b61016d610482565b005b34801561017b57600080fd5b50610184610850565b60405161019191906123f2565b60405180910390f35b3480156101a657600080fd5b506101c160048036038101906101bc9190611d9c565b610950565b005b3480156101cf57600080fd5b506101d8610be4565b6040516101e59190612124565b60405180910390f35b3480156101fa57600080fd5b5061021560048036038101906102109190611d9c565b610c0a565b005b34801561022357600080fd5b5061022c610f37565b6040516102399190612175565b60405180910390f35b34801561024e57600080fd5b5061026960048036038101906102649190611dee565b610f4a565b005b34801561027757600080fd5b506102806112fe565b60405161028d91906123f2565b60405180910390f35b3480156102a257600080fd5b506102ab611303565b005b3480156102b957600080fd5b506102c261158f565b6040516102cf9190612124565b60405180910390f35b3480156102e457600080fd5b506102ed6115b5565b005b3480156102fb57600080fd5b50610304611800565b6040516103119190612124565b60405180910390f35b34801561032657600080fd5b5061032f61199c565b60405161033c919061213f565b60405180910390f35b34801561035157600080fd5b5061035a6119c2565b60405161036791906123f2565b60405180910390f35b34801561037c57600080fd5b506103856119c8565b60405161039291906123f2565b60405180910390f35b3480156103a757600080fd5b506103b06119cd565b6040516103bd91906123f2565b60405180910390f35b3480156103d257600080fd5b506103db6119d3565b6040516103e89190612190565b60405180910390f35b3480156103fd57600080fd5b50610406611a61565b6040516104139190612124565b60405180910390f35b34801561042857600080fd5b50610431611a85565b60405161043e919061215a565b60405180910390f35b61044f611a98565b005b34801561045d57600080fd5b50610466611c5d565b60405161047391906123f2565b60405180910390f35b60075481565b60008054906101000a900473ffffffffffffffffffffffffffffffffffffffff1673ffffffffffffffffffffffffffffffffffffffff163373ffffffffffffffffffffffffffffffffffffffff1614806105295750600160009054906101000a900473ffffffffffffffffffffffffffffffffffffffff1673ffffffffffffffffffffffffffffffffffffffff163373ffffffffffffffffffffffffffffffffffffffff16145b610568576040517f08c379a000000000000000000000000000000000000000000000000000000000815260040161055f90612392565b60405180910390fd5b600560019054906101000a900473ffffffffffffffffffffffffffffffffffffffff1673ffffffffffffffffffffffffffffffffffffffff163373ffffffffffffffffffffffffffffffffffffffff1614156105f9576040517f08c379a00000000000000000000000000000000000000000000000000000000081526004016105f0906121d2565b60405180910390fd5b60016004811115610633577f4e487b7100000000000000000000000000000000000000000000000000000000600052602160045260246000fd5b600560159054906101000a900460ff16600481111561067b577f4e487b7100000000000000000000000000000000000000000000000000000000600052602160045260246000fd5b146106bb576040517f08c379a00000000000000000000000000000000000000000000000000000000081526004016106b290612352565b60405180910390fd5b60b4600454426106cb91906124be565b111561070c576040517f08c379a000000000000000000000000000000000000000000000000000000000815260040161070390612252565b60405180910390fd5b600360009054906101000a900473ffffffffffffffffffffffffffffffffffffffff1673ffffffffffffffffffffffffffffffffffffffff1663f7434ea96040518163ffffffff1660e01b815260040161076590612332565b60206040518083038186803b15801561077d57600080fd5b505afa158015610791573d6000803e3d6000fd5b505050506040513d601f19601f820116820180604052508101906107b59190611dc5565b34146107f6576040517f08c379a00000000000000000000000000000000000000000000000000000000081526004016107ed90612212565b60405180910390fd5b426006819055506002600560156101000a81548160ff02191690836004811115610849577f4e487b7100000000000000000000000000000000000000000000000000000000600052602160045260246000fd5b0217905550565b60006001600481111561088c577f4e487b7100000000000000000000000000000000000000000000000000000000600052602160045260246000fd5b600560159054906101000a900460ff1660048111156108d4577f4e487b7100000000000000000000000000000000000000000000000000000000600052602160045260246000fd5b14610914576040517f08c379a000000000000000000000000000000000000000000000000000000000815260040161090b90612232565b60405180910390fd5b60b46007544261092491906124be565b11610948574260b46007546109399190612468565b61094391906124be565b61094b565b60005b905090565b60008054906101000a900473ffffffffffffffffffffffffffffffffffffffff1673ffffffffffffffffffffffffffffffffffffffff163373ffffffffffffffffffffffffffffffffffffffff1614806109f75750600160009054906101000a900473ffffffffffffffffffffffffffffffffffffffff1673ffffffffffffffffffffffffffffffffffffffff163373ffffffffffffffffffffffffffffffffffffffff16145b610a36576040517f08c379a0000000000000000000000000000000000000000000000000000000008152600401610a2d90612392565b60405180910390fd5b60006004811115610a70577f4e487b7100000000000000000000000000000000000000000000000000000000600052602160045260246000fd5b600560159054906101000a900460ff166004811115610ab8577f4e487b7100000000000000000000000000000000000000000000000000000000600052602160045260246000fd5b14610af8576040517f08c379a0000000000000000000000000000000000000000000000000000000008152600401610aef906121b2565b60405180910390fd5b33600560016101000a81548173ffffffffffffffffffffffffffffffffffffffff021916908373ffffffffffffffffffffffffffffffffffffffff16021790555080600560006101000a81548160ff02191690836002811115610b84577f4e487b7100000000000000000000000000000000000000000000000000000000600052602160045260246000fd5b02179055506001600560156101000a81548160ff02191690836004811115610bd5577f4e487b7100000000000000000000000000000000000000000000000000000000600052602160045260246000fd5b02179055504260078190555050565b600560019054906101000a900473ffffffffffffffffffffffffffffffffffffffff1681565b60008054906101000a900473ffffffffffffffffffffffffffffffffffffffff1673ffffffffffffffffffffffffffffffffffffffff163373ffffffffffffffffffffffffffffffffffffffff161480610cb15750600160009054906101000a900473ffffffffffffffffffffffffffffffffffffffff1673ffffffffffffffffffffffffffffffffffffffff163373ffffffffffffffffffffffffffffffffffffffff16145b610cf0576040517f08c379a0000000000000000000000000000000000000000000000000000000008152600401610ce790612392565b60405180910390fd5b600560019054906101000a900473ffffffffffffffffffffffffffffffffffffffff1673ffffffffffffffffffffffffffffffffffffffff163373ffffffffffffffffffffffffffffffffffffffff161415610d81576040517f08c379a0000000000000000000000000000000000000000000000000000000008152600401610d78906121d2565b60405180910390fd5b60026004811115610dbb577f4e487b7100000000000000000000000000000000000000000000000000000000600052602160045260246000fd5b600560159054906101000a900460ff166004811115610e03577f4e487b7100000000000000000000000000000000000000000000000000000000600052602160045260246000fd5b14610e43576040517f08c379a0000000000000000000000000000000000000000000000000000000008152600401610e3a90612272565b60405180910390fd5b60b460065442610e5391906124be565b11610e93576040517f08c379a0000000000000000000000000000000000000000000000000000000008152600401610e8a906121f2565b60405180910390fd5b80600560006101000a81548160ff02191690836002811115610ede577f4e487b7100000000000000000000000000000000000000000000000000000000600052602160045260246000fd5b02179055506004600560156101000a81548160ff02191690836004811115610f2f577f4e487b7100000000000000000000000000000000000000000000000000000000600052602160045260246000fd5b021790555050565b600560159054906101000a900460ff1681565b600360009054906101000a900473ffffffffffffffffffffffffffffffffffffffff1673ffffffffffffffffffffffffffffffffffffffff163373ffffffffffffffffffffffffffffffffffffffff1614610fda576040517f08c379a0000000000000000000000000000000000000000000000000000000008152600401610fd190612372565b60405180910390fd5b60036004811115611014577f4e487b7100000000000000000000000000000000000000000000000000000000600052602160045260246000fd5b600560159054906101000a900460ff16600481111561105c577f4e487b7100000000000000000000000000000000000000000000000000000000600052602160045260246000fd5b1461109c576040517f08c379a0000000000000000000000000000000000000000000000000000000008152600401611093906122b2565b60405180910390fd5b60028111156110e0576040517f08c379a00000000000000000000000000000000000000000000000000000000081526004016110d7906122d2565b60405180910390fd5b6004600560156101000a81548160ff0219169083600481111561112c577f4e487b7100000000000000000000000000000000000000000000000000000000600052602160045260246000fd5b02179055506001600281111561116b577f4e487b7100000000000000000000000000000000000000000000000000000000600052602160045260246000fd5b8114156111de5760008054906101000a900473ffffffffffffffffffffffffffffffffffffffff1673ffffffffffffffffffffffffffffffffffffffff166108fc479081150290604051600060405180830381858888f193505050501580156111d8573d6000803e3d6000fd5b50611289565b600280811115611217577f4e487b7100000000000000000000000000000000000000000000000000000000600052602160045260246000fd5b81141561128857600160009054906101000a900473ffffffffffffffffffffffffffffffffffffffff1673ffffffffffffffffffffffffffffffffffffffff166108fc479081150290604051600060405180830381858888f19350505050158015611286573d6000803e3d6000fd5b505b5b81600360009054906101000a900473ffffffffffffffffffffffffffffffffffffffff1673ffffffffffffffffffffffffffffffffffffffff167f394027a5fa6e098a1191094d1719d6929b9abc535fcc0c8f448d6a4e75622276836040516112f291906123f2565b60405180910390a35050565b60b481565b60008054906101000a900473ffffffffffffffffffffffffffffffffffffffff1673ffffffffffffffffffffffffffffffffffffffff163373ffffffffffffffffffffffffffffffffffffffff1614806113aa5750600160009054906101000a900473ffffffffffffffffffffffffffffffffffffffff1673ffffffffffffffffffffffffffffffffffffffff163373ffffffffffffffffffffffffffffffffffffffff16145b6113e9576040517f08c379a00000000000000000000000000000000000000000000000000000000081526004016113e090612392565b60405180910390fd5b600560019054906101000a900473ffffffffffffffffffffffffffffffffffffffff1673ffffffffffffffffffffffffffffffffffffffff163373ffffffffffffffffffffffffffffffffffffffff16141561147a576040517f08c379a0000000000000000000000000000000000000000000000000000000008152600401611471906121d2565b60405180910390fd5b600160048111156114b4577f4e487b7100000000000000000000000000000000000000000000000000000000600052602160045260246000fd5b600560159054906101000a900460ff1660048111156114fc577f4e487b7100000000000000000000000000000000000000000000000000000000600052602160045260246000fd5b1461153c576040517f08c379a0000000000000000000000000000000000000000000000000000000008152600401611533906122f2565b60405180910390fd5b6004600560156101000a81548160ff02191690836004811115611588577f4e487b7100000000000000000000000000000000000000000000000000000000600052602160045260246000fd5b0217905550565b600160009054906101000a900473ffffffffffffffffffffffffffffffffffffffff1681565b60008054906101000a900473ffffffffffffffffffffffffffffffffffffffff1673ffffffffffffffffffffffffffffffffffffffff163373ffffffffffffffffffffffffffffffffffffffff16148061165c5750600160009054906101000a900473ffffffffffffffffffffffffffffffffffffffff1673ffffffffffffffffffffffffffffffffffffffff163373ffffffffffffffffffffffffffffffffffffffff16145b61169b576040517f08c379a000000000000000000000000000000000000000000000000000000000815260040161169290612392565b60405180910390fd5b600160048111156116d5577f4e487b7100000000000000000000000000000000000000000000000000000000600052602160045260246000fd5b600560159054906101000a900460ff16600481111561171d577f4e487b7100000000000000000000000000000000000000000000000000000000600052602160045260246000fd5b1461175d576040517f08c379a0000000000000000000000000000000000000000000000000000000008152600401611754906123b2565b60405180910390fd5b60b46004544261176d91906124be565b116117ad576040517f08c379a00000000000000000000000000000000000000000000000000000000081526004016117a490612292565b60405180910390fd5b6004600560156101000a81548160ff021916908360048111156117f9577f4e487b7100000000000000000000000000000000000000000000000000000000600052602160045260246000fd5b0217905550565b600060048081111561183b577f4e487b7100000000000000000000000000000000000000000000000000000000600052602160045260246000fd5b600560159054906101000a900460ff166004811115611883577f4e487b7100000000000000000000000000000000000000000000000000000000600052602160045260246000fd5b146118c3576040517f08c379a00000000000000000000000000000000000000000000000000000000081526004016118ba906123d2565b60405180910390fd5b600160028111156118fd577f4e487b7100000000000000000000000000000000000000000000000000000000600052602160045260246000fd5b600560009054906101000a900460ff166002811115611945577f4e487b7100000000000000000000000000000000000000000000000000000000600052602160045260246000fd5b14156119735760008054906101000a900473ffffffffffffffffffffffffffffffffffffffff169050611999565b600160009054906101000a900473ffffffffffffffffffffffffffffffffffffffff1690505b90565b600360009054906101000a900473ffffffffffffffffffffffffffffffffffffffff1681565b60045481565b60b481565b60065481565b600280546119e0906125cf565b80601f0160208091040260200160405190810160405280929190818152602001828054611a0c906125cf565b8015611a595780601f10611a2e57610100808354040283529160200191611a59565b820191906000526020600020905b815481529060010190602001808311611a3c57829003601f168201915b505050505081565b60008054906101000a900473ffffffffffffffffffffffffffffffffffffffff1681565b600560009054906101000a900460ff1681565b60026004811115611ad2577f4e487b7100000000000000000000000000000000000000000000000000000000600052602160045260246000fd5b600560159054906101000a900460ff166004811115611b1a577f4e487b7100000000000000000000000000000000000000000000000000000000600052602160045260246000fd5b14611b5a576040517f08c379a0000000000000000000000000000000000000000000000000000000008152600401611b5190612312565b60405180910390fd5b600360009054906101000a900473ffffffffffffffffffffffffffffffffffffffff1673ffffffffffffffffffffffffffffffffffffffff1663c13517e13460026040518363ffffffff1660e01b8152600401611bb7919061240d565b6020604051808303818588803b158015611bd057600080fd5b505af1158015611be4573d6000803e3d6000fd5b50505050506040513d601f19601f82011682018060405250810190611c099190611dc5565b506003600560156101000a81548160ff02191690836004811115611c56577f4e487b7100000000000000000000000000000000000000000000000000000000600052602160045260246000fd5b0217905550565b600060026004811115611c99577f4e487b7100000000000000000000000000000000000000000000000000000000600052602160045260246000fd5b600560159054906101000a900460ff166004811115611ce1577f4e487b7100000000000000000000000000000000000000000000000000000000600052602160045260246000fd5b14611d21576040517f08c379a0000000000000000000000000000000000000000000000000000000008152600401611d1890612272565b60405180910390fd5b60b460065442611d3191906124be565b11611d55574260b4600654611d469190612468565b611d5091906124be565b611d58565b60005b905090565b600081359050611d6c81612b25565b92915050565b600081359050611d8181612b35565b92915050565b600081519050611d9681612b35565b92915050565b600060208284031215611dae57600080fd5b6000611dbc84828501611d5d565b91505092915050565b600060208284031215611dd757600080fd5b6000611de584828501611d87565b91505092915050565b60008060408385031215611e0157600080fd5b6000611e0f85828601611d72565b9250506020611e2085828601611d72565b9150509250929050565b611e33816124f2565b82525050565b611e4281612554565b82525050565b611e5181612578565b82525050565b611e608161258a565b82525050565b6000611e718261243b565b611e7b8185612457565b9350611e8b81856020860161259c565b611e948161268e565b840191505092915050565b6000611eac602483612457565b9150611eb78261269f565b604082019050919050565b6000611ecf602883612457565b9150611eda826126ee565b604082019050919050565b6000611ef2603383612457565b9150611efd8261273d565b604082019050919050565b6000611f15603783612457565b9150611f208261278c565b604082019050919050565b6000611f38602383612457565b9150611f43826127db565b604082019050919050565b6000611f5b601583612457565b9150611f668261282a565b602082019050919050565b6000611f7e602083612457565b9150611f8982612853565b602082019050919050565b6000611fa1602283612457565b9150611fac8261287c565b604082019050919050565b6000611fc4602c83612457565b9150611fcf826128cb565b604082019050919050565b6000611fe7601583612457565b9150611ff28261291a565b602082019050919050565b600061200a602683612457565b915061201582612943565b604082019050919050565b600061202d602083612457565b915061203882612992565b602082019050919050565b6000612050600083612446565b915061205b826129bb565b600082019050919050565b6000612073602083612457565b915061207e826129be565b602082019050919050565b6000612096602583612457565b91506120a1826129e7565b604082019050919050565b60006120b9602283612457565b91506120c482612a36565b604082019050919050565b60006120dc602783612457565b91506120e782612a85565b604082019050919050565b60006120ff601c83612457565b915061210a82612ad4565b602082019050919050565b61211e8161254a565b82525050565b60006020820190506121396000830184611e2a565b92915050565b60006020820190506121546000830184611e39565b92915050565b600060208201905061216f6000830184611e48565b92915050565b600060208201905061218a6000830184611e57565b92915050565b600060208201905081810360008301526121aa8184611e66565b905092915050565b600060208201905081810360008301526121cb81611e9f565b9050919050565b600060208201905081810360008301526121eb81611ec2565b9050919050565b6000602082019050818103600083015261220b81611ee5565b9050919050565b6000602082019050818103600083015261222b81611f08565b9050919050565b6000602082019050818103600083015261224b81611f2b565b9050919050565b6000602082019050818103600083015261226b81611f4e565b9050919050565b6000602082019050818103600083015261228b81611f71565b9050919050565b600060208201905081810360008301526122ab81611f94565b9050919050565b600060208201905081810360008301526122cb81611fb7565b9050919050565b600060208201905081810360008301526122eb81611fda565b9050919050565b6000602082019050818103600083015261230b81611ffd565b9050919050565b6000602082019050818103600083015261232b81612020565b9050919050565b6000602082019050818103600083015261234b81612043565b9050919050565b6000602082019050818103600083015261236b81612066565b9050919050565b6000602082019050818103600083015261238b81612089565b9050919050565b600060208201905081810360008301526123ab816120ac565b9050919050565b600060208201905081810360008301526123cb816120cf565b9050919050565b600060208201905081810360008301526123eb816120f2565b9050919050565b60006020820190506124076000830184612115565b92915050565b60006040820190506124226000830184612115565b818103602083015261243381612043565b905092915050565b600081519050919050565b600082825260208201905092915050565b600082825260208201905092915050565b60006124738261254a565b915061247e8361254a565b9250827fffffffffffffffffffffffffffffffffffffffffffffffffffffffffffffffff038211156124b3576124b2612601565b5b828201905092915050565b60006124c98261254a565b91506124d48361254a565b9250828210156124e7576124e6612601565b5b828203905092915050565b60006124fd8261252a565b9050919050565b600081905061251282612afd565b919050565b600081905061252582612b11565b919050565b600073ffffffffffffffffffffffffffffffffffffffff82169050919050565b6000819050919050565b600061255f82612566565b9050919050565b60006125718261252a565b9050919050565b600061258382612504565b9050919050565b600061259582612517565b9050919050565b60005b838110156125ba57808201518184015260208101905061259f565b838111156125c9576000848401525b50505050565b600060028204905060018216806125e757607f821691505b602082108114156125fb576125fa61265f565b5b50919050565b7f4e487b7100000000000000000000000000000000000000000000000000000000600052601160045260246000fd5b7f4e487b7100000000000000000000000000000000000000000000000000000000600052602160045260246000fd5b7f4e487b7100000000000000000000000000000000000000000000000000000000600052602260045260246000fd5b6000601f19601f8301169050919050565b7f4f6e6c7920696e6974616c206d6174636865732063616e20626520616e6e6f7560008201527f6e63656400000000000000000000000000000000000000000000000000000000602082015250565b7f43616e206f6e6c792062652063616c6c656420627920746865206e6f7420616e60008201527f6e6f756e6365722e000000000000000000000000000000000000000000000000602082015250565b7f416e6e6f756e636572207374696c6c206861732074696d6520746f206465706f60008201527f736974206172626974726174696f6e2066656500000000000000000000000000602082015250565b7f43616e2774207265636c61696d2066756e647320776974686f7574206465706f60008201527f736974696e67206172626974726174696f6e206665652e000000000000000000602082015250565b7f4d61746368206973206e6f7420696e20616e20616e6e6f756e6365642073746160008201527f74652e0000000000000000000000000000000000000000000000000000000000602082015250565b7f50726f7465737420706572696f6420656e6465642e0000000000000000000000600082015250565b7f4d61746368206973206e6f7420696e2070726f7465737465642073746174652e600082015250565b7f4f706f6e656e74207374696c6c206861732074696d6520746f2070726f74657360008201527f742e000000000000000000000000000000000000000000000000000000000000602082015250565b7f54686572652073686f756c64206265206469737075746520746f20657865637560008201527f746520612072756c696e672e0000000000000000000000000000000000000000602082015250565b7f52756c696e67206f7574206f6620626f756e6473210000000000000000000000600082015250565b7f4f6e6c7920616e6e6f756e636564206d6174636865732063616e20626520616360008201527f6370657465640000000000000000000000000000000000000000000000000000602082015250565b7f4d61746368206973206e6f7420696e2050726f7465737465642073746174652e600082015250565b50565b7f4d61746368206973206e6f7420696e20616e6e6f756e6365642073746174652e600082015250565b7f4f6e6c79207468652061726269747261746f722063616e20657865637574652060008201527f746869732e000000000000000000000000000000000000000000000000000000602082015250565b7f43616e206f6e6c792062652063616c6c65642062792074686520706c6179657260008201527f732e000000000000000000000000000000000000000000000000000000000000602082015250565b7f4f6e6c7920616e6e6f756e636564206d6174636865732063616e20626520666960008201527f6e616c697a656400000000000000000000000000000000000000000000000000602082015250565b7f57696e6e6572206973206e6f742066696e616c697a6564207965742e00000000600082015250565b60038110612b0e57612b0d612630565b5b50565b60058110612b2257612b21612630565b5b50565b60038110612b3257600080fd5b50565b612b3e8161254a565b8114612b4957600080fd5b5056fea2646970667358221220b921785fcc66bac99900582f89aa0a8963e3a25d70f7bc4bd5b3da294ef87d2764736f6c63430008040033a26469706673582212208dc3f5b08909deae35e05e1633e54054bcbe6459c552f458ed71fdb718f743a564736f6c63430008040033",
  "immutableReferences": {},
  "source": "/**\n * SPDX-License-Identifier: MIT\n */\npragma solidity >=0.7;\n\nimport \"./DeMatch.sol\";\nimport \"./IArbitrator.sol\";\n\n// This is a simple tournament contract to show usecases of DeMatches\ncontract SimpleTournaments {\n    DeMatch[] public matches;\n\n    struct Checkout {\n        uint256 amount;\n        bool checkedOut;\n    }\n\n    mapping(uint256 => Checkout) checkouts;\n\n    struct MatchProposal {\n        address proposer;\n        uint256 amount;\n        bool open;\n        string title;\n    }\n\n    MatchProposal[] public proposedMatches;\n\n    IArbitrator arbitrator;\n\n    constructor(IArbitrator _arbitrator) {\n        arbitrator = _arbitrator;\n    }\n\n    function proposeMatch(string memory _title)\n        public\n        payable\n        returns (uint256)\n    {\n        proposedMatches.push(\n            MatchProposal({\n                proposer: msg.sender,\n                amount: msg.value,\n                open: true,\n                title: _title\n            })\n        );\n\n        return proposedMatches.length - 1;\n    }\n\n    function endProposal(uint256 _proposalId) public {\n        MatchProposal memory currentProposal = proposedMatches[_proposalId];\n\n        require(\n            msg.sender == currentProposal.proposer,\n            \"Only proposer and end it.\"\n        );\n\n        require(\n            currentProposal.open == true,\n            \"Proposal is not in an endable state\"\n        );\n\n        proposedMatches[_proposalId] = MatchProposal({\n            title: currentProposal.title,\n            proposer: currentProposal.proposer,\n            amount: currentProposal.amount,\n            open: false\n        });\n\n        payable(currentProposal.proposer).transfer(currentProposal.amount);\n    }\n\n    function getProposalAmount(uint256 _proposalId)\n        public\n        view\n        returns (uint256)\n    {\n        return proposedMatches[_proposalId].amount;\n    }\n\n    function acceptProposal(uint256 _proposalId)\n        public\n        payable\n        returns (uint256)\n    {\n        MatchProposal memory currentProposal = proposedMatches[_proposalId];\n\n        require(\n            msg.value >= currentProposal.amount,\n            \"You must pay the proposal amount to accept it.\"\n        );\n\n        proposedMatches[_proposalId] = MatchProposal({\n            title: currentProposal.title,\n            proposer: currentProposal.proposer,\n            amount: currentProposal.amount,\n            open: false\n        });\n\n        matches.push(\n            new DeMatch(\n                currentProposal.proposer,\n                msg.sender,\n                arbitrator,\n                block.timestamp,\n                currentProposal.title\n            )\n        );\n        checkouts[matches.length - 1] = Checkout({\n            amount: currentProposal.amount + msg.value,\n            checkedOut: false\n        });\n\n        return matches.length - 1;\n    }\n\n    function withdrawFunds(uint256 _matchId) public {\n        require(\n            checkouts[_matchId].checkedOut == false,\n            \"This match is already withdrawed.\"\n        );\n        DeMatch currentMatch = matches[_matchId];\n        require(\n            currentMatch.finalizedWinner() == msg.sender,\n            \"You're not this match winner. Atleast yet.\"\n        );\n        payable(msg.sender).transfer(checkouts[_matchId].amount);\n    }\n\n    function getMatches() public view returns (DeMatch[] memory) {\n        return matches;\n    }\n\n    function getProposals() public view returns (MatchProposal[] memory) {\n        return proposedMatches;\n    }\n}\n",
  "sourcePath": "/home/ajand/Desktop/projects/web3/kleros/contracts/SimpleTournaments.sol",
  "compiler": {
    "name": "solc",
    "version": "0.8.4+commit.c7e474f2.Emscripten.clang"
  },
  "schemaVersion": "3.4.1",
  "updatedAt": "2021-07-25T13:44:47.564Z",
  "devdoc": {
    "kind": "dev",
    "methods": {},
    "version": 1
  },
  "userdoc": {
    "kind": "user",
    "methods": {},
    "version": 1
  }
}